:020000040000FA
:100000000C9456040C9487040C9487040C94870475
:100010000C9487040C9487040C9487040C94870434
:100020000C9487040C9487040C9487040C94870424
:100030000C9487040C9487040C9487040C94870414
:100040000C9487040C9487040C9487040C94870404
:100050000C9487040C9487040C9487040C94B111BD
:100060000C9487040C947B110C9451110C9487040C
:100070000C9487040C9487040C9487040C948704D4
:100080000C9487040C9487040C9487040C948704C4
:100090000C9487040C9487040C9487040C94FB1133
:1000A0000C9487040C9487040C9487040C948704A4
:1000B0000C9487040C9487040C9487040C94870494
:1000C0000C9487040C9487040C9487040C94870484
:1000D0000C9487040C9487040C9487040C94870474
:1000E0000C9487040C94C9040C942F0C0C943A0EB5
:1000F0000C942E060C94DB0E0C94F4050C94EE0577
:100100000C94010D0C94FA040C94600D0C941B06D5
:100110000C9493040C947F050C9417060C9413060E
:100120000C94F5090C94D80D0C94C80E0C94EC04A6
:100130000C941B130C94BC0E0C9433060C94D80432
:100140000C94880F0C9433090C9432050C9403061C
:100150000C94CA090C94FC050C94F50D0C94F8054C
:100160000C94AC0E0C9425060C94D40E0C94290619
:100170000C940D060C9400060C9409060C942F06A2
:100180000C94730E0C94870F0C9422090C94210686
:1001900000407A10F35A00A0724E18090010A5D43E
:1001A000E80000E87648170000E40B54020000CA9B
:1001B0009A3B000000E1F5050000809698000000E1
:1001C00040420F000000A086010000001027000040
:1001D0000000E803000000006400000000000A00C6
:1001E000000000000100000000002C76D888DC67C9
:1001F0004F0823DFC1DFAE59E1B1B796E5E3E45321
:10020000C63AE651997696E8E6C28426EB898C9B3D
:1002100062ED407C6FFCEFBC9C9F40F2BAA56FA5DD
:10022000F490055A2AF75C936B6CF9676DC11BFC5F
:10023000E0E40D47FEF520E6B500D0ED902E03007A
:10024000943577050080841E080000204E0A0000C7
:1002500000C80C333333330F986E12831141EF8D86
:100260002114893BE65516CFFEE6DB18D1844B38C6
:100270001BF77C1D901DA4BBE424203284725E22F7
:100280008100C9F124ECA1E53D2700000000003EFB
:100290005B4F5B3E3E6B4F6B3E1C3E7C3E1C183CF6
:1002A0007E3C181C577D571C1C5E7F5E1C00183C52
:1002B0001800FFE7C3E7FF0018241800FFE7DBE79B
:1002C000FF30483A060E2629792926407F05050782
:1002D000407F05253F5A3CE73C5A7F3E1C1C0808DE
:1002E0001C1C3E7F14227F22145F5F005F5F0609A3
:1002F0007F017F006689956A606060606094A2FFFC
:10030000A29408047E040810207E201008082A1CED
:1003100008081C2A08081E101010100C1E0C1E0CB9
:1003200030383E3830060E3E0E0600000000000059
:10033000005F00000007000700147F147F14242AC8
:100340007F2A12231308646236495620500008079A
:100350000300001C2241000041221C002A1C7F1CBB
:100360002A08083E080800807030000808080808BD
:10037000000060600020100804023E5149453E0024
:10038000427F400072494949462141494D33181482
:10039000127F1027454545393C4A494931412111D1
:1003A00009073649494936464949291E00001400C3
:1003B00000004034000000081422411414141414E6
:1003C000004122140802015909063E415D594E7C44
:1003D0001211127C7F494949363E414141227F41F9
:1003E00041413E7F494949417F090909013E414157
:1003F00051737F0808087F00417F41002040413F42
:10040000017F081422417F404040407F021C027F50
:100410007F0408107F3E4141413E7F090909063EA5
:100420004151215E7F091929462649494932030174
:100430007F01033F4040403F1F2040201F3F403886
:10044000403F631408146303047804036159494D61
:1004500043007F4141410204081020004141417F97
:10046000040201020440404040400003070800200D
:10047000545478407F28444438384444442838440D
:1004800044287F385454541800087E090218A4A444
:100490009C787F0804047800447D40002040403D63
:1004A000007F1028440000417F40007C04780478DD
:1004B0007C080404783844444438FC182424181870
:1004C000242418FC7C0804040848545454240404CC
:1004D0003F44243C4040207C1C2040201C3C4030B9
:1004E000403C44281028444C9090907C4464544CE8
:1004F0004400083641000000770000004136080043
:1005000002010204023C2623263C1EA1A161123AEC
:100510004040207A38545455592155557941225438
:10052000547842215554784020545579400C1E523D
:1005300072123955555559395454545939555454E2
:10054000580000457C410002457D420001457C4049
:100550007D1211127DF0282528F07C54554500208D
:1005600054547C547C0A097F4932494949323A44FF
:1005700044443A324A4848303A4141217A3A42406A
:100580002078009DA0A07D3D4242423D3D4040403C
:100590003D3C24FF2424487E4943662B2FFC2F2B0F
:1005A000FF0929F620C0887E0903205454794100B0
:1005B00000447D413048484A32384040227A007A2F
:1005C0000A0A727D0D19317D2629292F282629290D
:1005D000292630484D40203808080808080808082F
:1005E000382F10C8ACBA2F102834FA00007B000056
:1005F00008142A142222142A14085500550055AA5A
:1006000055AA55AAFF55FF55FF000000FF00101026
:1006100010FF00141414FF001010FF00FF1010F062
:1006200010F0141414FC001414F700FF0000FF0075
:10063000FF1414F404FC141417101F10101F101FC3
:100640001414141F00101010F0000000001F1010F0
:1006500010101F10101010F010000000FF101010EC
:10066000101010101010FF10000000FF140000FF09
:1006700000FF00001F10170000FC04F414141710F2
:10068000171414F404F40000FF00F71414141414E5
:100690001414F700F7141414171410101F101F145B
:1006A0001414F4141010F010F000001F101F0000BC
:1006B000001F14000000FC140000F010F01010FFE8
:1006C00010FF141414FF141010101F00000000F08D
:1006D00010FFFFFFFFFFF0F0F0F0F0FFFFFF000062
:1006E000000000FFFF0F0F0F0F0F3844443844FC89
:1006F0004A4A4A347E02020606027E027E026355A0
:100700004941633844443C04407E201E2006027E5A
:10071000020299A5E7A5991C2A492A1C4C7201726C
:100720004C304A4D4D303048784830BC625A463DD6
:100730003E494949007E0101017E2A2A2A2A2A448B
:10074000445F444440514A444040444A51400000C0
:10075000FF0103E080FF000008086B6B08361236CB
:100760002436060F090F06000018180000001010AC
:10077000003040FF0101001F01011E00191D17126A
:10078000003C3C3C3C000000000000002100240034
:1007900027002A002D003000330001010000040171
:1007A00007010A0100000A0B02090C0D0E080703DD
:1007B0000401000000000000000000000000000034
:1007C0000000000000000000000000000000000029
:1007D00012111000000000000000000000000000E6
:1007E00000000000000000000000000020002300C6
:1007F000260029002C002F00320000010000030118
:1008000006010901010210202008081020401020D4
:1008100040800201020108040201010204081020C4
:1008200040808040201008040201800402018040C2
:10083000201008040201080402010102040810202B
:1008400040800102040810204080000022002500A2
:1008500028002B002E0031003400020100000501A9
:1008600008010B010505050507050808080802022F
:1008700002020A0A0808040404040101010101013A
:1008800001010303030303030303040707070C0C1D
:100890000C0C0C0C0C0C02020202060606060606E4
:1008A00006060B0B0B0B0B0B0B0B1B1311241FBEA4
:1008B000CFEFD1E2DEBFCDBF00E00CBF25E0A6E860
:1008C000B4E001C01D92AB3CB207E1F714E0A0E038
:1008D000B2E0ECECFAE300E00BBF02C007900D922F
:1008E000A638B107D9F714E0C6E5D4E000E006C0A9
:1008F00021970109802FFE010E942D1BC535D107CC
:1009000080E00807A9F70E94E7130C94641D0C947B
:100910000000FC0120812EBD0DB407FEFDCF2EB5D9
:10092000FC0120830895AF92BF92CF92DF92EF92A5
:10093000FF920F931F93CF93DF936C017B018B0189
:10094000040F151FEB015E01AE18BF08C017D107D9
:1009500059F06991D601ED91FC910190F081E02D63
:10096000C6011995892B79F7C501DF91CF911F91A8
:100970000F91FF90EF90DF90CF90BF90AF900895D0
:10098000FC01448155816081718180EA95E00C947D
:100990009304FC01538D448D252F30E0842F90E08B
:1009A000821B930B541710F0CF960895019708956A
:1009B000FC01918D828D981761F0A28DAE0FBF2F33
:1009C000B11D5D968C91928D9F5F9F73928F90E089
:1009D00008958FEF9FEF0895FC01918D828D9817F8
:1009E00031F0828DE80FF11D858D90E008958FEF35
:1009F0009FEF0895FC01918D228D892F90E0805CFE
:100A00009F4F821B91098F739927089583E095E08A
:100A10000E94FA0421E0892B09F420E0822F089536
:100A2000FC01A48DA80FB92FB11DA35ABF4F2C9163
:100A3000848D90E001968F739927848FA689B7895A
:100A40002C93A089B1898C91837080648C93938D51
:100A5000848D981306C00288F389E02D80818F7DF4
:100A600080830895EF92FF920F931F93CF93DF93AC
:100A7000EC0181E0888F9B8D8C8D98131AC0E889DA
:100A8000F989808185FF15C09FB7F894EE89FF89A9
:100A90006083E889F98980818370806480839FBF47
:100AA00081E090E0DF91CF911F910F91FF90EF9047
:100AB0000895F62E0B8D10E00F5F1F4F0F73112757
:100AC000E02E8C8D8E110CC00FB607FCFACFE88992
:100AD000F989808185FFF5CFCE010E941005F1CF05
:100AE000EB8DEC0FFD2FF11DE35AFF4FF0829FB706
:100AF000F8940B8FEA89FB8980818062CFCFCF93F6
:100B0000DF93EC01888D8823B9F0AA89BB89E88935
:100B1000F9898C9185FD03C0808186FD0DC00FB6DB
:100B200007FCF7CF8C9185FFF2CF808185FFEDCF59
:100B3000CE010E941005E9CFDF91CF91089580E0AA
:100B400090E0892B29F00E94060581110E94000087
:100B500080E090E0892B49F080E090E0892B29F03B
:100B60000E94000081110E94000080E090E0892B2B
:100B700049F080E090E0892B29F00E94000081116B
:100B80000E94000080E090E0892B49F080E090E036
:100B9000892B29F00E94000081110C940000089517
:100BA0008150823108F05AC0E82FF0E08827E452E3
:100BB000FA4F8F4F0C942D1BFC050006EE05F40533
:100BC000F8052E06030609060D06130617061B0672
:100BD000210625062E0629062F0633068091800061
:100BE0008F77809380000895809180008F7DF9CF6A
:100BF00080918000877FF5CF84B58F7784BD08957D
:100C000084B58F7DFBCF8091B0008F778093B0004B
:100C100008958091B0008F7DF9CF809190008F77FB
:100C2000809390000895809190008F7DF9CF8091FE
:100C30009000877FF5CF8091A0008F778093A000F0
:100C400008958091A0008F7DF9CF8091A000877FCB
:100C5000F5CF809120018F778093200108958091B6
:100C600020018F7DF9CF80912001877FF5CFCF9331
:100C7000DF93E1EBF7E08491E1E1F8E0D491E1E783
:100C8000F8E0C491CC23A1F081110E94D005EC2F93
:100C9000F0E0EE0FFF1FE651F84FA591B491EC91F3
:100CA000ED2381E090E009F480E0DF91CF91089599
:100CB00080E090E0FACF1F93CF93DF93282F30E0AE
:100CC000F901EC55F84F8491F901EC5FF74FD4919D
:100CD000F901EC59F74FC491CC23A9F0162F8111DB
:100CE0000E94D005EC2FF0E0EE0FFF1FE65BF74F00
:100CF000A591B4918FB7F894EC91111108C0D095DB
:100D0000DE23DC938FBFDF91CF911F910895DE2BFF
:100D1000F8CFCF93DF9390E0FC01EC5FF74F249185
:100D20008C59974FFC0184918823D1F090E0880F73
:100D3000991FFC01E657F84FA591B491FC01E65BC1
:100D4000F74FC591D49161110EC09FB7F8948C9163
:100D5000E22FE0958E238C932881E223E8839FBFC6
:100D6000DF91CF9108958FB7F894EC91E22BEC933B
:100D70008FBFF6CF8230910538F0880F991F880F0A
:100D8000991F05970197F1F708959F92AF92BF922F
:100D9000CF92DF92EF92FF920F931F93CF93DF9347
:100DA000EC016B018885998511E0892B09F010E829
:100DB000F601A0808A2D8123992493948111912C8E
:100DC0002C813D814E815F8160E271EA87E090E095
:100DD0000E940B1B022FB12CE22EF12C002319F0E4
:100DE000C7010E94BA068A85877F09F04FC08D85AA
:100DF0008F3F89F09A2D912381E009F480E08915D5
:100E000051F0EF85F8898F899923D1F19081892B51
:100E1000808399249394E989FA898081998D892B1B
:100E20008083002319F0C7010E94BA068E858F3F88
:100E300039F0EB89FC898081988D892309F0B12AEA
:100E4000E989FA899081898D8095892380838E85AF
:100E50008F3F11F0F601B08288859985892B09F0C2
:100E600044C0110F1111BACFDF91CF911F910F9193
:100E7000FF90EF90DF90CF90BF90AF909F9008953C
:100E80009081809589238083912CC5CFE989FA8947
:100E90008081998D892B8083002319F0C7010E94DE
:100EA000BA068D858F3F49F0EF85F8898F899A2D95
:100EB0009123B9F09081892B8083E989FA89908107
:100EC000898D8095892380838E858F3F09F4BFCFDC
:100ED000EB89FC898081988D892309F4B8CFB12AE8
:100EE000B6CF908180958923E7CF1695BBCFAF927F
:100EF000BF92CF92DF92EF92FF920F931F93CF9307
:100F0000DF931F92CDB7DEB78C015B016A01DC0174
:100F10008D919C911197892BB9F01296ED91FC91CE
:100F20002081918180910205882361F08FB7F89428
:100F300030910205313019F53DB3309301053DB3D1
:100F40003DBB8FBF2CBD9DBDF80183858F3F19F040
:100F500060E00E945B067501CA0CDB1CCE14DF0446
:100F6000C1F0D7018D917D018983F8018081918144
:100F7000892B41F0CE0101960E948904EFCF809326
:100F80000105E0CFBE016F5F7F4FC8010E94C5061B
:100F9000E5CFD8011B968C918F3F19F061E00E943C
:100FA0005B06F80180819181892B71F080910205A7
:100FB000882351F09FB7F894209102058091010594
:100FC000213079F48DBB9FBF81E00F90DF91CF91ED
:100FD0001F910F91FF90EF90DF90CF90BF90AF9057
:100FE00008958FBFF1CF3FB7F8948091FC049091A2
:100FF000FD04A091FE04B091FF0426B5A89B05C096
:101000002F3F19F00196A11DB11D3FBFBA2FA92F87
:10101000982F8827BC01CD01620F711D811D911D84
:1010200042E0660F771F881F991F4A95D1F70895F0
:101030008F929F92AF92BF92CF92DF92EF92FF92E8
:101040004B015C010E94F3076B017C010E94F307D6
:101050006C197D098E099F09683E734081059105D1
:10106000A8F321E0821A9108A108B10888EEC80E01
:1010700083E0D81EE11CF11C81149104A104B10489
:1010800029F7FF90EF90DF90CF90BF90AF909F90A7
:101090008F9008950F931F93CF93DF931F92CDB737
:1010A000DEB78C01698360E0FC01868D0E945B06DF
:1010B00041E050E0BE016F5F7F4FF801838D948D5A
:1010C0000E9477070F90DF91CF911F910F910895A4
:1010D000CF93C82F87FDCFE7C093BF0561E280EAB9
:1010E00095E00E944A086C2F606880EA95E00E94B3
:1010F0004A0860E280EA95E0CF910C944A08CF93C9
:101100008091BD0587FD13C061E00E94890660E003
:101110008091BD050E945B0661E070E080E090E098
:101120000E94180861E08091BD050E945B06C09195
:10113000C005C83008F0C7E0C093C00561E280EA8E
:1011400095E00E944A086C2F606180EA95E00E9459
:101150004A0860E280EA95E00E944A088091BF0553
:101160000E94680860E280EA95E00E944A086CE00C
:1011700080EA95E0CF910C944A08FF920F931F9359
:10118000CF93DF939091C105992339F08091C205E7
:101190008F5F8917E8F58093C205D091C505D69574
:1011A000D695D69584E5D89F800111248091C605F7
:1011B0008695869586958D1780F16D2F606480EAFF
:1011C00095E00E944A08C091C305F090C4056C2FB9
:1011D000606880EA95E00E944A0861E08091BE055F
:1011E0000E945B064F2D50E06C2F70E0461B570BA2
:1011F0004F5F5F4F600F711F60507E4F8091BB0546
:101200009091BC050E947707DF5F0C5A1F4FCECF2D
:101210001092C2050E947F08C0CF60E480EA95E08A
:101220000E944A0883E58093C3051092C4058FE2AB
:101230008093C5051092C605DF91CF911F910F9144
:10124000FF9008951F93CF93DF93EC01162F60E278
:101250000E944A086CE011116DE0CE01DF91CF9140
:101260001F910C944A08FC0177FD55C0808591853B
:10127000681779070CF04FC057FD4DC082859385E4
:10128000481759070CF047C08689823009F444C0DA
:10129000833009F44EC0813031F48FE290E0861B38
:1012A000970BBA01AC01842FA62F93A1691708F4FC
:1012B000962F93A394A19A1708F49A2F94A395A11B
:1012C000891708F4982F95A396A1981708F4982FDA
:1012D00096A3CA0157FD0796E3E095958795EA9591
:1012E000E1F7A4E5A89FF001A99FF00D1124E60FF6
:1012F000F71FE050FE4FCA0168E070E00E94F71A45
:1013000041E050E001C0440F8A95EAF78081232B29
:10131000B9F0842B8083089583E590E0DC01A61B5F
:10132000B70BBD018FE290E0DC01A41BB50BAD0152
:10133000BACF83E590E0841B950BAB01BC01B3CF22
:1013400040958423E7CF2091AD04260F3327331F28
:1013500021323105ECF42091D104FC0190E080E0D1
:10136000243069F082E00895A091AD042191AC0190
:1013700043575B4FA40FB52FB11D2C9301968617D1
:1013800098F38091AD04680F6093AD0480E00895F8
:1013900081E0089508958FEF9FEF08958FEF9FEFFD
:1013A00008958091860490E0919581959109089522
:1013B000CF93DF93CB01EA01642F0E94A309CE01F2
:1013C000DF91CF910895CF93DF931F92CDB7DEB712
:1013D000698361E0CE0101960E94A30981E090E05B
:1013E0000F90DF91CF9108950895FC016370668B93
:1013F0008481958126813781613039F0633029F00D
:101400009187808733872287089531872087938744
:10141000828708952F923F924F925F926F927F92B0
:101420008F929F92AF92BF92CF92DF92EF92FF92F4
:101430000F931F93CF93DF93CDB7DEB76A970FB6A5
:10144000F894DEBF0FBECDBF9A8F898F7A836983F0
:101450004A01D22E18870F833701BC2CDC01599624
:101460002D913C915A972115310509F015C1189617
:101470008D919C911997681779070CF0D7C11A962E
:101480008D919C91481759070CF0D0C14C2C512CD0
:10149000B6E0CB9E600D711D11247C876B871616FC
:1014A00017060CF0C3C1EA2DF0E0FA87E98793E054
:1014B000EE0FFF1F9A95E1F7F88BEF87CF01840FAE
:1014C000951F181619060CF0B1C1A98DBA8D589642
:1014D0008C91811104C0BFEABD1508F4D394A98D85
:1014E000BA8DED91FC9111970284F385E02DCD0129
:1014F0001995B5E0DB9EC0011124E981FA81FC83D6
:10150000EB83312C212C9C0126573D4F388F2F8B9C
:101510004A2D50E05E8B4D8BEF89F88DE20DF31D67
:1015200044919E828D82D12CC12C69817A81620D79
:10153000731D7A8B698B842F90E09C8B8B8BE98D4C
:10154000FA8DA081B18140FF82C0F1E0BF126FC06F
:10155000AF126DC01C96ED91FC912F813885A401CE
:101560004C0D5D1D69897A89898D9A8D1995EB8954
:10157000FC89F595E7954E2F5FEFC51AD50A6D8169
:101580007E818D899E89680F791F7E836D8398E0A7
:10159000C916D10481F6AFEF2A1A3A0AEB81FC8111
:1015A000E40DF51DFC83EB83F5E02F16310409F003
:1015B000B3CF2F81388526153705B9F0A98DBA8D9F
:1015C000ED91FC91B1E0BB1257C0AB1255C06981DF
:1015D0007A816B5F7F4F0088F189E02D830128E0DD
:1015E00030E0A401898D9A8D1995A98DBA8DED9160
:1015F000FC9111970688F789E02DCD016A960FB608
:10160000F894DEBF0FBECDBFDF91CF911F910F9138
:10161000FF90EF90DF90CF90BF90AF909F908F9012
:101620007F906F905F904F903F902F9019941E96EF
:10163000ED91FC91EF80F88409851A8592014D8126
:101640005E816B817C81898D9A8D199590CF2F81D8
:1016500038852615370509F48ACF31E0B31207C063
:10166000A31205C01C96ED91FC91930178CF1E96B4
:10167000ED91FC917301E0CF6B857C856419750950
:101680000684F785E02D73010F8518899201A40166
:10169000898D9A8D1995A9CFF90134969491329735
:1016A00045915491D91AB7E0DB9E400D511D11248C
:1016B000F901259134913C8B2B8BFA0125903490C4
:1016C000FA013296749031963491398B3296649047
:1016D0003196449041E04C1518F04A1508F07FC04F
:1016E000662D062C000C770B7C836B83842D042CD9
:1016F000000C990B9E838D83A98DBA8DED91FC9181
:1017000011970284F385E02DCD011995512CD12C30
:10171000C12CEA2DF0E0FA87E9872B2D30E03C87D9
:101720002B87A401440D511D47FC5A95588F4F8BB0
:1017300069817A81660D711D67FC7A957E876D8758
:101740007989C71608F051CF2C2D30E04D815E818C
:10175000420F531FA985BA854A9FC0014B9F900D28
:101760005A9F900D1124FC01E80DF91DF88BEF87AD
:10177000852D612C4F89588D420F531F5E8B4D8BE9
:10178000671408F050C044244394480E877041F415
:10179000C1010196EB89FC89E20DF31DD4901C0177
:1017A000D7FE19C0A98DBA8DED91FC91662D70E020
:1017B000B1E0BB1219C0AB1217C02D853E85620F78
:1017C000731F0484F585E02D2F8138854D895E894E
:1017D000898D9A8D1995DD0C6394842DD1CF1E824D
:1017E0001D821C821B8288CF4B815C81640F751F18
:1017F000AB85BC856A9FC0016B9F900D7A9F900D51
:10180000112469817A81680F791F0684F785E02D9C
:10181000EF80F88409851A859D014F855889898D47
:101820009A8D1995D8CF570CC3948ACF6A960FB664
:10183000F894DEBF0FBECDBFDF91CF911F910F9106
:10184000FF90EF90DF90CF90BF90AF909F908F90E0
:101850007F906F905F904F903F902F9008958F9260
:101860009F92AF92CF92EF92FF920F931F93CF93DD
:10187000DF93EC01262F898D9A8D009709F051C0D6
:101880006A30D1F41D861C868D8948E0849F9001C2
:1018900011248E859F85820F931F9F878E8781E0FD
:1018A00090E0DF91CF911F910F91FF90EF90CF903B
:1018B000AF909F908F9008956D3089F3CC88AD885C
:1018C0008F898823C1F08C859D8536E0C39E800D6D
:1018D000911D1124488559854817590764F44E8590
:1018E0005F851D861C8638E0A39EC0011124840FED
:1018F000951F9F878E87EA88FB88088919894E85FE
:101900005F856C857D85CE010E940A0A2C898C85B5
:101910009D8546E0249F800D911D11249D878C8715
:10192000BECF6A3069F41D861C86FC013896E491AE
:101930002D898E859F85E29F800D911D1124ADCF4D
:101940006D3009F4ACCFFC0134963491631708F480
:10195000A6CF3296E491E61708F4A1CFFC013296A7
:1019600085909490462F431B342F47E0349F800C82
:10197000911C1124F401329634913196E491332371
:10198000A9F1EE2399F1CC88F4013596E491AD8864
:101990004F89442301F10E2E000CFF0BE30FF11DC4
:1019A000CE9EA001CF9E500D11246C857D85460FE3
:1019B000571F68857985641775076CF44E855F85B8
:1019C0001D861C86FC013896E491AE9E400D511D8B
:1019D00011245F874E87EA88FB88088919894E851C
:1019E0005F856C857D85CE010E940A0AF4013496DC
:1019F000E4912C898C859D85E29F800D911D112499
:101A00008DCF6F927F928F929F92AF92BF92CF9223
:101A1000DF92EF92FF920F931F93CF93DF93EC012E
:101A20006B015A0139014801E881F9810284F3858B
:101A3000E02D1995E881F9810288F389E02D87016D
:101A40009301A501B601CE011995A501480D591DB7
:101A500041505109E881F9810288F389E02D930111
:101A6000B601CE011995E881F9810088F189E02D50
:101A70009401A501B601CE011995C60CD71CB6017B
:101A800061507109E881F9810088F189E02D9401A4
:101A9000A501CE011995E881F9810688F789E02D25
:101AA000CE01DF91CF911F910F91FF90EF90DF90CA
:101AB000CF90BF90AF909F908F907F906F90199430
:101AC0006F927F928F929F92AF92BF92CF92DF924E
:101AD000EF92FF920F931F93CF93DF935C01EB0183
:101AE0006A01490138018701DC01ED91FC9162171F
:101AF000730719F5641675062CF0962D872D3A019B
:101B0000C92ED82E9601261937092F5F3F4F048C16
:101B1000F58DE02DA301BE01C5011995DF91CF918F
:101B20001F910F91FF90EF90DF90CF90BF90AF90FB
:101B30009F908F907F906F9008954615570591F470
:101B40002617370724F0892D4B01C22FD82F9E016D
:101B5000281939092F5F3F4F068CF78DE02DA6011C
:101B6000B401DACF0284F385E02D1995D501ED910A
:101B7000FC910488F589E02D83019401A601BE0142
:101B8000C5011995D501ED91FC910688F789E02DE5
:101B9000C501DF91CF911F910F91FF90EF90DF90E2
:101BA000CF90BF90AF909F908F907F906F9019943F
:101BB000EF92FF920F931F93DC011A960D911C91E7
:101BC0001B9718962D913C911997ED91FC9100A0CF
:101BD000F1A1E02D7B0150E040E070E060E019955C
:101BE0001F910F91FF90EF9008954F925F926F9227
:101BF0007F928F929F92AF92BF92CF92DF92EF929D
:101C0000FF920F931F93CF93DF936C012B015A0127
:101C100039014801DC01ED91FC910284F385E02D4E
:101C20001995E201640C751CD601ED91FC91C61565
:101C3000D7055CF40088F189E02D87019401A501A6
:101C4000BE01C60119952196EFCF0688F789E02DD0
:101C5000C601DF91CF911F910F91FF90EF90DF9020
:101C6000CF90BF90AF909F908F907F906F905F903C
:101C70004F9019948F929F92AF92BF92CF92DF9222
:101C8000EF92FF920F931F93CF93DF93EC015B01D1
:101C90004A016901E881F9810284F385E02D1995F3
:101CA00095012C0D3D1D21503109E881F9810488F1
:101CB000F589E02D78018401A401B501CE011995C3
:101CC000E881F9810688F789E02DCE01DF91CF9177
:101CD0001F910F91FF90EF90DF90CF90BF90AF904A
:101CE0009F908F9019948F929F92AF92BF92CF92B4
:101CF000DF92EF92FF920F931F93CF93DF93EC014C
:101D00005B014A0169017801E881F9810284F38568
:101D1000E02D1995C80CD91C860101501109E881E4
:101D2000F9810488F589E02D9501A401B501CE0162
:101D30001995E881F9810688F789E02DCE01DF91B8
:101D4000CF911F910F91FF90EF90DF90CF90BF90B8
:101D5000AF909F908F901994EF92FF920F931F93E3
:101D6000DC01ED91FC9100A0F1A1E02D19951F91EE
:101D70000F91FF90EF9008950F931F93DC01ED9169
:101D8000FC91068CF78DE02D19951F910F91089508
:101D90000F931F93DC01ED91FC91048CF58DE02DE8
:101DA00019951F910F910895DC01ED91FC9100842C
:101DB000F185E02D19942F923F924F925F926F928E
:101DC0007F928F929F92AF92BF92CF92DF92EF92CB
:101DD000FF920F931F93CF93DF9300D000D0CDB726
:101DE000DEB73C016A013E832D83FC82EB82580101
:101DF000A41AB50AB7FE03C0B194A194B1088D80AE
:101E00009E80861A970A97FE03C091948194910848
:101E10008A149B045CF0902F812F0D811E819D837D
:101E20008E839C2D8D2D6B01692F782F0C151D0530
:101E30005CF09D818E817E836D83692F782F902F3A
:101E4000812F8601C92ED82E1601201A310A2B01A6
:101E50002D813E81421A530A57FE03C0519441948A
:101E60005108710137FE03C03FEFE31AF30AF594FE
:101E7000E7948D819E81861797075CF5A1E0B0E01D
:101E8000BA83A983C016D1064CF1D301ED91FC9120
:101E90000484F585E02D2B813C81A8016D817E8134
:101EA0008A149B041CF04D815E81B801C301199511
:101EB000E418F508F7FE0AC02D813E8189819A81D8
:101EC000280F391F3E832D83E20CF31C0F5F1F4F39
:101ED000D9CF2FEF3FEF3A832983D4CF26960FB681
:101EE000F894DEBF0FBECDBFDF91CF911F910F9150
:101EF000FF90EF90DF90CF90BF90AF909F908F902A
:101F00007F906F905F904F903F902F90089508952D
:101F100090E080E00895CF93CFB7F89480910005CA
:101F2000811127C0E9E9F8E08491E9E3F8E09491B0
:101F3000E82FF0E0EE0FFF1FE657F84FA591B491A0
:101F4000EC91E92321F461E085E30E945B0661E006
:101F500085E30E9489068CB580618CBD8CB5806458
:101F60008CBD61E084E30E94890661E083E30E9406
:101F70008906809100058F5F80930005CFBFCF91C8
:101F80000895E0E0F2E088EF91E0DF019C011D920E
:101F900021503040E1F71092C3058091C40583358C
:101FA00008F483E58093C4051092C5058091C605A9
:101FB0008F3208F48FE28093C6051092AD0510921F
:101FC000AC051092AF051092AE050895FB0101908B
:101FD0000020E9F73197AF01461B570BDC01ED916B
:101FE000FC910280F381E02D19940E944F1D0F9304
:101FF0001F93CF93DF93EC0188819981009759F06B
:102000002A813B812617370730F081E0DF91CF919D
:102010001F910F9108958B016F5F7F4F0E946E1C7F
:10202000009759F0998388831B830A832C813D8113
:10203000232B59F7FC011082E8CF80E0E7CFCF9344
:10204000DF93EC0188819981009711F00E94E51BD4
:10205000198218821D821C821B821A82DF91CF9105
:102060000895EF92FF920F931F93CF93DF93EC01AC
:10207000FB01E080F180E114F10411F1048115818C
:1020800001151105A9F08C819D81080F191FB80158
:10209000CE010E94F70F882399F0288139818C8125
:1020A0009D81B701820F931F0E945D1D1D830C83CC
:1020B000CE01DF91CF911F910F91FF90EF90089586
:1020C000CE010E941F10F4CFEF92FF920F931F9347
:1020D000CF93DF93EC017B018A01BA010E94F70FD5
:1020E00081110BC0CE010E941F10CE01DF91CF9154
:1020F0001F910F91FF90EF9008951D830C83B701FE
:10210000888199810E945D1DF0CFEF92FF920F931D
:102110001F93CF93DF93CDB7DEB7A1970FB6F89497
:10212000DEBF0FBECDBF7C01CB01BA01F70111822A
:10213000108213821282158214828E010F5F1F4F4C
:1021400022E044E00E9479160097C9F0FC0101905A
:102150000020E9F73197AF01481B590BBC01C701BB
:102160000E946410A1960FB6F894DEBF0FBECDBFDB
:10217000DF91CF911F910F91FF90EF900895C701CC
:102180000E941F10EFCFFC01118210821382128275
:1021900015821482FB0101900020E9F73197AF010D
:1021A000461B570B0C946410FC01808191810097B1
:1021B00011F00C94E51B08951F93CF93DF9385EDE9
:1021C0008093BC008091890490918A04A0918B0433
:1021D000B0918C040796A11DB11D23E0B695A7957B
:1021E000979587952A95D1F72091BC0024FD03C0CF
:1021F0001092D10452C04091890450918A04609198
:102200008B0470918C04452B462B472B69F3009768
:10221000A105B10541F02AE22A95F1F700C0019726
:10222000A109B109E1CF80918804C1E0C09387047E
:10223000882399F1D091B8001091BA008091BC0028
:102240008A7B8093BC0060E084E10E945B0660E0D2
:1022500085E10E945B061092D104C093D3041092D2
:10226000D20461E084E10E945B0661E085E10E94A6
:102270005B068091B9008E7F8093B9008091B90090
:102280008D7F8093B90088E48093B80085E48093C3
:10229000BC001093BA00D093B800DF91CF911F918A
:1022A00008951F920F920FB60F9211240BB60F9242
:1022B0002F933F934F935F936F937F938F939F934E
:1022C000AF93BF93EF93FF9383E095E00E941005D7
:1022D000FF91EF91BF91AF919F918F917F916F91FE
:1022E0005F914F913F912F910F900BBE0F900FBEBA
:1022F0000F901F9018951F920F920FB60F921124F6
:102300000BB60F922F938F939F93EF93FF93E091D0
:102310001305F09114058081E0911905F0911A05DB
:1023200082FD1DC0908180911C058F5F8F7320916D
:102330001D05821741F0E0911C05F0E0ED5FFA4FBA
:10234000958F80931C05FF91EF919F918F912F9115
:102350000F900BBE0F900FBE0F901F9018958081AD
:10236000F2CF1F920F920FB60F9211242F933F932B
:102370008F939F93AF93BF938091F8049091F9044A
:10238000A091FA04B091FB043091F70423E0230FED
:102390002D3758F50196A11DB11D2093F7048093A8
:1023A000F8049093F904A093FA04B093FB0480918D
:1023B000FC049091FD04A091FE04B091FF040196ED
:1023C000A11DB11D8093FC049093FD04A093FE0415
:1023D000B093FF04BF91AF919F918F913F912F9147
:1023E0000F900FBE0F901F90189526E8230F0296AE
:1023F000A11DB11DD2CF1F920F920FB60F921124C3
:102400000BB60F922F933F934F935F936F937F93EE
:102410008F939F93AF93BF93EF93FF938091B900F6
:10242000887F803609F44DC008F040C0883209F436
:10243000A7C028F5803109F49BC0C8F4882309F4AB
:10244000F7C0883009F494C0FF91EF91BF91AF912C
:102450009F918F917F916F915F914F913F912F91BC
:102460000F900BBE0F900FBE0F901F9018958831E4
:1024700009F486C0803241F78093D00414C08034C0
:1024800009F49BC040F48033B9F38833E9F68093B4
:10249000D00485ECAEC0803509F483C0883509F4DA
:1024A00094C0883489F60E94DC10CECF883909F4B4
:1024B0008AC038F5883729F050F4883611F0803713
:1024C00019F683E08093D1041092CF0455C0883868
:1024D00009F479C0803919F0803809F0B5CF8091BE
:1024E000CF04803208F06FC0E091CF0481E08E0FFE
:1024F0008093CF048091BB00F0E0E155FB4F8083D7
:102500003BC0803B39F0D0F4803A09F477C0883A78
:1025100009F09ACF84E08093D1041092AE04109217
:10252000AD04F0E0E0E019958091AD0481110FC099
:1025300081E08093AD0410928D0409C0803C09F4C1
:10254000A8CF883C09F4A5CF883B09F07DCFE09166
:10255000AE0481E08E0F8093AE04F0E0E357FB4FB2
:1025600080818093BB009091AE048091AD0429C01E
:102570008091F6048093BB0085EC8093BC0064CF0F
:102580009091F5048091F404981758F5E091F504C2
:1025900081E08E0F8093F504F0E0EC52FB4F8081D8
:1025A000E9CFE091F50481E08E0F8093F5048091EE
:1025B000BB00F0E0EC52FB4F80839091F5048091DA
:1025C000F4049817C8F285E8D8CFE091F50481E0CB
:1025D0008E0F8093F5048091BB00F0E0EC52FB4F2E
:1025E00080838091D30481115ECF81E08093D204F7
:1025F00084EA8093BC001092D10426CF85EC8093AE
:10260000BC001092D1048091CF04803230F4E0916C
:10261000CF04F0E0E155FB4F10826091CF0470E0F1
:102620008FEA94E0F0E0E0E019951092CF040CCF2F
:102630001092D00438CF0F931F93CF93DF93E3E032
:10264000F5E01382128288EE93E0A0E0B0E084838C
:102650009583A683B78382E094E09183808385ECA1
:1026600090E09587848784EC90E09787868780EC5C
:1026700090E0918B808B81EC90E0938B828B82EC4D
:1026800090E0958B848B86EC90E0978B868B118EF7
:10269000128E138E148EC0EAD5E01B821A8224E5B6
:1026A00030E03D832C8380E390E09F838E833987E5
:1026B00028879B878A871E8A1D861C861F861E8602
:1026C00081E08D8B8C8B2FEF3FEF3B8B2A8B398BEF
:1026D000288B8F8B188E1A8E198E84E194E0998343
:1026E00088838CE190E00E94491B8C0185E0D80131
:1026F0001B968C931B9782E01C968C931C978FEFF4
:102700001E968C931E9783E01D968C931D97E9E689
:10271000F8E0E491F0E0EE0FFF1FE65BF74F8591E4
:102720009491F801968B858BE9E0F8E0E4915A9654
:10273000EC935A97E7E6F8E0E491F0E0EE0FFF1F24
:10274000E65BF74F85919491F801908B8787E7E0DE
:10275000F8E0E4915796EC935797E6E6F8E0E491B9
:10276000F0E0EE0FFF1FE65BF74F85919491F801C3
:10277000928B818BE6E0F8E0E4915996EC9380E04F
:1027800099E0ADE3B0E0F80184839583A683B78335
:1027900081E090E0918780871286138E82E090E03E
:1027A0000E94491B20E5DC012C9311961C92F80134
:1027B00093838283118210821C8F0B8F84E08E8F13
:1027C00086E08D8FDF91CF911F910F910895CF9368
:1027D000DF93CDB7DEB76C970FB6F894DEBF0FBEB0
:1027E000CDBF789484B5826084BD84B5816084BD9A
:1027F00085B5826085BD85B5816085BD80916E009F
:10280000816080936E0010928100809181008260CF
:10281000809381008091810081608093810080910C
:1028200080008160809380008091B10084608093FB
:10283000B1008091B00081608093B00080919100E0
:1028400082608093910080919100816080939100DB
:10285000809190008160809390008091A1008260BF
:102860008093A1008091A10081608093A10080915C
:10287000A00081608093A0008091210182608093FC
:1028800021018091210181608093210180912001AB
:1028900081608093200180917A00846080937A0027
:1028A00080917A00826080937A0080917A008160C2
:1028B00080937A0080917A00806880937A001092E9
:1028C000C100E0911305F091140582E08083E0914E
:1028D0000F05F09110051082E0911105F09112059D
:1028E0008FEC808310921B05E0911705F09118057D
:1028F00086E08083E0911505F09116058081806166
:102900008083E0911505F0911605808188608083B1
:10291000E0911505F0911605808180688083E09133
:102920001505F091160580818F7D80830E948B0FA5
:1029300060E085E30E94890661E08DE00E948906DF
:102940008CB58F7D8CBD8CB5837F84608CBD8CB540
:102950008C7F82608CBD8DB58E7F8DBD0091BB0557
:102960001091BC05F80183858F3F41F061E00E9422
:10297000890661E0F80183850E945B06F801808189
:102980009181892B09F48FC10E948B0F81E0F8019E
:10299000838F61E08091BE050E9489068091BD050C
:1029A00087FD03C061E00E94890684E08093C00532
:1029B00088E28093BF051092C1051092C2050E9463
:1029C0007F081092C3058091C405833508F483E520
:1029D0008093C4051092C5058091C6058F3208F416
:1029E0008FE28093C6050E94BD088CE30E946808B0
:1029F0000E94C10F0E94BD0860E08DE00E945B064E
:102A000080E4882E99249394CE0101967C019DE266
:102A1000292E312C60E085E30E945B0680917B00CB
:102A2000877F80937B0080927C0080917A00806415
:102A300080937A0080917A0086FDFCCFA090780088
:102A4000B0907900B5010B2C000C880B990B0E94FB
:102A50001F1920E030E040EA5BE30E945A192B0185
:102A60003C0120E030E040EB5FE30E94181A2CEEBE
:102A700031E548EB5CE30E94851A698F7A8F8B8F72
:102A80009C8F9092B4059092B5050E94C10FE1E031
:102A9000F0E0F093B105E093B0051092B305109209
:102AA000B20588E090E09093AD058093AC0510925C
:102AB000AF051092AE056CE374E080EA95E00E94E9
:102AC000E60F01E010E023E530E04AE050E070E07E
:102AD00060E080EA95E00E943A0E1092AD051092F7
:102AE000AC05EFE0F0E0F093AF05E093AE051C8A93
:102AF0001B8A1E8A1D8A188E1F8A4AE0B701C501EB
:102B00000E949716F70101900020E9F73197AF0175
:102B10004E195F09B701CE0143960E94641069E423
:102B200074E0C7010E94C310BE016D5E7F4FC701F4
:102B30000E9431100E94C004C7010E94D410CE012F
:102B400043960E94D4101092AD051092AC0589E115
:102B500090E09093AF058093AE05B301A201C70149
:102B60000E94851063E574E0CE0143960E94C31075
:102B7000B701CE0143960E9431108C01FC01C48044
:102B8000D580F7E0CF0ED11CB6010E94F70F882345
:102B900009F4ABC0F80120813181848195816DE514
:102BA00074E0820F931F0E945D1DF801D582C482DC
:102BB000C8010E94C004CE0143960E94D410C701F0
:102BC0000E94D4101092AD051092AC0583E290E003
:102BD0009093AF058093AE05498D5A8D6B8D7C8D9A
:102BE000C7010E94851065E674E0CE0143960E94FD
:102BF000C310B701CE0143960E9431100E94C00459
:102C0000CE0143960E94D410C7010E94D4101092A6
:102C1000AD051092AC053092AF052092AE050E9432
:102C2000BD08AEBC00000DB407FEFDCF8EB561E05F
:102C300085E30E945B069FB7F89480910005882386
:102C400019F081508093000580910005811105C025
:102C50008CB58F7B8CBD109202059FBF6FE674E030
:102C600083E095E00E94E60F63E874E083E095E07E
:102C70000E94E60F0E943706019721F460E08DE084
:102C80000E945B060E943706892B21F461E08DE0EB
:102C90000E945B0662E370E080E090E00E9418080A
:102CA0000E949F05B7CE61E084850E948906F801E5
:102CB00082858B7F60E009F061E084850E945B067D
:102CC000F80185858F3F41F061E00E94890661E04F
:102CD000F80185850E945B06F80186858F3F09F41F
:102CE00055CE60E00E94890651CEC8010E941F1097
:102CF0005FCFEF920F931F93CF93DF93E80134E000
:102D000047FD34E1042E000C550B57FF03C05195CD
:102D100041955109E32E022F242FAE010E94BC16CB
:102D2000CE01DF91CF911F910F91EF900895BB27B6
:102D30004A3031F4992322F4BDE2909581959F4F5A
:102D40000C94A316BB27FB015527AA27880F991FB0
:102D5000AA1FA41710F0A41B83955051B9F7A05DCA
:102D6000AA3308F0A95DA193009779F7B111B19347
:102D70001192CB010C940D198F929F92AF92BF923A
:102D8000CF92DF92EF92FF920F931F93CF93DF9337
:102D900000D000D000D0CDB7DEB76A01F22EB02E41
:102DA000102FFBE3AF2EA01608F41BE31F5F012FCB
:102DB00027E0AE014F5F5F4F0E943518BC0189814B
:102DC000982F9970913009F44EC09BE2E1FC04C049
:102DD0009E2D9170E0FC49C05E2D5071E82FE87087
:102DE00083FF55C084E0911101C083E0EF2DE81B03
:102DF0008F1508F0E0E0D6018E2F20E25523C9F1AF
:102E0000992329F0D6019C93C60101966C01960185
:102E10002D5F3F4FE2FE33C08EE4D6018C9391E4E8
:102E200011969C93119712968C93D9018E2F90E254
:102E300081112AC0E20FF32FF11D10828EEF9FEF58
:102E400029960FB6F894DEBF0FBECDBFDF91CF91AC
:102E50001F910F91FF90EF90DF90CF90BF90AF90B8
:102E60009F908F9008959DE2B7CF90E2B5CF2D93BC
:102E700081508111FCCFCE0ED11CE0E0C1CF8EE697
:102E8000D6018C9391E6CCCF9D938150D1CF482F22
:102E9000447082FF3DC084E0911101C083E08F1532
:102EA00010F4EF2DE81BD6018E2F20E2552309F1F7
:102EB000992329F0D6019C93C60101966C019601D5
:102EC0002D5F3F4FE2FE1BC089E4D6018C938EE458
:102ED00011968C93119786E412968C93D9018E2FBC
:102EE00090E2882309F4A6CF9D938150FACF2D93C9
:102EF00081508111FCCFCE0ED11CE0E0D9CF89E604
:102F0000D6018C938EE611968C93119786E6E4CFCA
:102F10009B0177FF02C030E020E0A1E0B0E091111A
:102F200002C0B0E0A0E0F9013196AE0FBF1F8B2CBC
:102F3000912CBB2009F461C05401EFEFAE1ABE0A18
:102F4000AA0DBB1DFA161B0619F014F04F2D4A1BD3
:102F5000511188C0E3FC59C07601A42FB0E2A11141
:102F60004FC0C40ED11C992309F45BC040E0D601C8
:102F70001196F60190836D01552309F448C0012F85
:102F8000060F9A81582F507184FF03C0913309F4C2
:102F9000015010160CF047C0093008F008E0EEE2CE
:102FA000FE2E5B01A01AB1088501919481949108CD
:102FB0002F3F320729F4D601FC92F60131966F01BA
:102FC0006217730794F1021713077CF5DB01A21B4C
:102FD000B30BAA24A394B12CAC0EBD1EAA0DBB1D2D
:102FE00011968C9121503109D60111962815390579
:102FF000F4F0F60180836D01DBCFB12CA12CA0CFC2
:10300000F701B1937F01A150AACF9111B0CFD601A2
:10301000942F50E302C05D9391509111FCCFC40EE8
:10302000D11C40E0ACCF01E0BACF80E3DBCF621728
:10303000730731F4963388F4953311F4552369F00E
:10304000F6018083FD01842F90E2811108C0A40F56
:10305000B11D1C9290E080E0F3CE81E3F1CF91931B
:103060008150F3CF911183CF8ACF283008F027E029
:103070003327DA01990F311D87FD916000966105B4
:10308000710539F432602E5F3D9330E32A95E1F704
:1030900008959F3F30F080387105610509F03C5F6D
:1030A0003C5F3D93913008F08068911DDF93CF9392
:1030B0001F930F93FF92EF92192F987F9695E92F08
:1030C00096959695E90FFF27E651FE4F99273327EE
:1030D000EE24FF24A701E70105900894079428F443
:1030E000360FE71EF81E491F511D660F771F881FF8
:1030F000991F0694A1F70590079428F4E70EF81E8F
:10310000491F561FC11D770F881F991F661F069400
:10311000A1F70590079428F4F80E491F561FC71F02
:10312000D11D880F991F661F771F0694A1F7059080
:10313000079420F4490F561FC71FD81F990F661F09
:10314000771F881F0694A9F784911095177041F096
:10315000D695C79557954795F794E7941A95C1F773
:10316000E0E9F1E06894159015913591659195919C
:1031700005907FE27395E118F10A430B560BC90BDA
:10318000D009C0F7E10CF11E431F561FC91FD01D07
:103190007EF4703311F48A95E6CFE894015030F054
:1031A000080F0AF40027021708F4202F2395022F96
:1031B0007A3328F079E37D932A95E9F710C07D935F
:1031C0002A9589F6069497956795379517951794DC
:1031D000E118F10A430B560BC90BD00998F023955F
:1031E0007E9173957A3308F070E37C932013B8F7DF
:1031F0007E9170617D9330F0839571E37D9370E3F0
:103200002A95E1F71124EF90FF900F911F91CF9134
:10321000DF91992787FD90950895DC01FC01672FC8
:1032200071917723E1F7329704C07C916D9370839D
:103230006291AE17BF07C8F30895E89409C097FBE1
:103240003EF490958095709561957F4F8F4F9F4F7D
:103250009923A9F0F92F96E9BB279395F6958795C1
:1032600077956795B795F111F8CFFAF4BB0F11F484
:1032700060FF1BC06F5F7F4F8F4F9F4F16C088232B
:1032800011F096E911C0772321F09EE8872F762F61
:1032900005C0662371F096E8862F70E060E02AF0A2
:1032A0009A95660F771F881FDAF7880F969587958E
:1032B00097F908950E946D190C94DE190E94D01997
:1032C00038F00E94D71920F0952311F00C94C719FB
:1032D0000C94CD1911240C94121A0E94EF1970F35A
:1032E000959FC1F3950F50E0551F629FF001729FAB
:1032F000BB27F00DB11D639FAA27F00DB11DAA1FBA
:10330000649F6627B00DA11D661F829F2227B00D06
:10331000A11D621F739FB00DA11D621F839FA00D91
:10332000611D221F749F3327A00D611D231F849FE1
:10333000600D211D822F762F6A2F11249F57504038
:103340009AF0F1F088234AF0EE0FFF1FBB1F661FB3
:10335000771F881F91505040A9F79E3F510580F07C
:103360000C94C7190C94121A5F3FE4F3983ED4F3FF
:10337000869577956795B795F795E7959F5FC1F720
:10338000FE2B880F911D9695879597F9089597F9CB
:103390009F6780E870E060E008959FEF80EC0895FB
:1033A00000240A9416161706180609060895002424
:1033B0000A9412161306140605060895092E03949E
:1033C000000C11F4882352F0BB0F40F4BF2B11F412
:1033D00060FF04C06F5F7F4F8F4F9F4F089557FD71
:1033E0009058440F551F59F05F3F71F04795880F73
:1033F00097FB991F61F09F3F79F08795089512160A
:1034000013061406551FF2CF4695F1DF08C01616B5
:1034100017061806991FF1CF869571056105089466
:103420000895E894BB2766277727CB0197F908957D
:103430005058BB27AA270E94301A0C94DE190E940C
:10344000D01938F00E94D71920F039F49F3F19F4B1
:1034500026F40C94CD190EF4E095E7FB0C94C719F3
:10346000E92F0E94EF1958F3BA1762077307840710
:10347000950720F079F4A6F50C94111A0EF4E09556
:103480000B2EBA2FA02D0B01B90190010C01CA011E
:10349000A0011124FF27591B99F0593F50F4503EC9
:1034A00068F11A16F040A22F232F342F4427585FBB
:1034B000F3CF469537952795A795F0405395C9F7D3
:1034C0007EF41F16BA0B620B730B840BBAF091508B
:1034D000A1F0FF0FBB1F661F771F881FC2F70EC02A
:1034E000BA0F621F731F841F48F4879577956795FD
:1034F000B795F7959E3F08F0B0CF9395880F08F0E9
:103500009927EE0F9795879508950E94991A0C9424
:10351000DE190E94D71958F00E94D01940F029F402
:103520005F3F29F00C94C71951110C94121A0C9496
:10353000CD190E94EF1968F39923B1F3552391F344
:10354000951B550BBB27AA2762177307840738F012
:103550009F5F5F4F220F331F441FAA1FA9F335D06F
:103560000E2E3AF0E0E832D091505040E695001C23
:10357000CAF72BD0FE2F29D0660F771F881FBB1FDD
:10358000261737074807AB07B0E809F0BB0B802DBB
:10359000BF01FF2793585F4F3AF09E3F510578F0E7
:1035A0000C94C7190C94121A5F3FE4F3983ED4F3BD
:1035B000869577956795B795F7959F5FC9F7880FBB
:1035C000911D9695879597F90895E1E0660F771F0D
:1035D000881FBB1F621773078407BA0720F0621B9E
:1035E000730B840BBA0BEE1F88F7E095089597FBD9
:1035F000072E16F4009407D077FD09D00E94351BE2
:1036000007FC05D03EF4909581959F4F08957095E5
:1036100061957F4F0895A1E21A2EAA1BBB1BFD01E5
:103620000DC0AA1FBB1FEE1FFF1FA217B307E407A1
:10363000F50720F0A21BB30BE40BF50B661F771FF9
:10364000881F991F1A9469F76095709580959095D9
:103650009B01AC01BD01CF010895EE0FFF1F881F34
:103660008BBF0790F691E02D1994AA1BBB1B51E16B
:1036700007C0AA1FBB1FA617B70710F0A61BB70BE2
:10368000881F991F5A95A9F780959095BC01CD0187
:1036900008950F931F93CF93DF938230910510F419
:1036A00082E090E0E091C905F091CA0530E020E0A9
:1036B000B0E0A0E0309799F42115310509F44AC033
:1036C000281B390B24303105D8F58A819B8161157F
:1036D000710589F1FB0193838283FE0111C0408152
:1036E00051810281138148175907E0F048175907A3
:1036F00099F4109761F012960C93129713961C93FD
:103700003296CF01DF91CF911F910F9108950093D1
:10371000C9051093CA05F4CF2115310551F04217A0
:10372000530738F0A901DB019A01BD01DF01F8015F
:10373000C1CFEF01F9CF9093CA058093C905CDCFD2
:10374000FE01E20FF31F81939193225031093983D7
:103750002883D7CF2091C7053091C805232B41F48A
:103760002091FA033091FB033093C8052093C705DD
:103770002091F8033091F9032115310541F42DB75B
:103780003EB74091FC035091FD03241B350BE091A3
:10379000C705F091C805E217F307A0F42E1B3F0BF5
:1037A0002817390778F0AC014E5F5F4F24173507B3
:1037B00048F04E0F5F1F5093C8054093C705819393
:1037C00091939FCFF0E0E0E09CCFCF93DF93009701
:1037D000E9F0FC01329713821282A091C905B091E1
:1037E000CA05ED0130E020E01097A1F4208131817D
:1037F000820F931F2091C7053091C80528173907FC
:1038000009F061C0F093C805E093C705DF91CF913F
:103810000895EA01CE17DF07E8F54A815B819E0132
:1038200041155105B1F7E901FB83EA8349915991AB
:10383000C40FD51FEC17FD0761F4808191810296BA
:10384000840F951FE90199838883828193819B83EB
:103850008A83F0E0E0E012968D919C911397009797
:10386000B9F52D913C911197CD010296820F931FCE
:103870002091C7053091C8052817390739F63097C8
:1038800051F51092CA051092C905B093C805A093CE
:10389000C705BCCFD383C28340815181840F951F5C
:1038A000C817D90761F44E5F5F4F88819981480F2F
:1038B000591F518340838A819B8193838283211581
:1038C000310509F0B0CFF093CA05E093C9059ECF4A
:1038D000FD01DC01C0CF13821282D7CF4F925F92DD
:1038E0006F927F928F929F92AF92BF92CF92DF9210
:1038F000EF92FF920F931F93CF93DF938C0100976A
:1039000099F4CB01DF91CF911F910F91FF90EF9030
:10391000DF90CF90BF90AF909F908F907F906F90EF
:103920005F904F900C94491BFC01E60FF71F9C0120
:1039300022503109E217F30708F4AEC0D901CD9146
:10394000DC911197C617D70720F1C530D10578F063
:10395000CE0104978617970750F0C61BD70B229706
:10396000C193D1936D937C93CF010E94E51BC80155
:10397000DF91CF911F910F91FF90EF90DF90CF904B
:10398000BF90AF909F908F907F906F905F904F907F
:1039900008955B01AC1ABD0A4C018C0E9D1EA091CE
:1039A000C905B091CA05512C412CF12CE12C10977E
:1039B00031F58091C7059091C8058815990509F0E2
:1039C0005CC04616570608F058C08091F8039091E5
:1039D000F903009741F48DB79EB74091FC035091D5
:1039E000FD03841B950BE817F90708F055C0F09309
:1039F000C805E093C705F90171836083B8CF8D9145
:103A00009C91119712966C90129713967C90139735
:103A1000A815B90559F56C0142E0C40ED11CCA14B1
:103A2000DB0420F1AC014A195B09DA011296159703
:103A300080F06282738251834083D9016D937C93BD
:103A4000E114F10471F0D7011396FC93EE931297F1
:103A50008ECF22968C0F9D1FF90191838083F301F5
:103A6000EFCFF093CA05E093C90581CF48165906F8
:103A700008F42C017D01D3019ACFCB010E94491B90
:103A80007C01009749F0AE01B8010E94541DC801A5
:103A90000E94E51B87016BCF10E000E068CF81E05A
:103AA00090E0F8940C94641DFB01DC0102C00190CD
:103AB0000D9241505040D8F70895FB01DC01019070
:103AC0000D920020E1F70895F894FFCF0000000068
:103AD00000000000000000000000000000000000E6
:103AE00000000000000000000000000000000000D6
:103AF0000000C0E0F0F8FCFCFEFFFCE0000000006D
:103B000000000000000000000000000000000000B5
:103B100000000000000000000000000000000000A5
:103B20000000000000000000000000000000000095
:103B300000F8F8F8F8F8F8F8F8F8F8F8F8F0F0E025
:103B4000E0C080C0FCFFFFFFFF7F3F7FFFFFFFFF64
:103B5000FF00000000000000000000000000000066
:103B60000000000000000000000000000000000055
:103B70000000000000000000000000000000000045
:103B80000000000000000F1F3F7FFFFFFFFFFFFF4F
:103B9000FFFFE7C7C7878F9F9FFFFFFFC1C0E0FC04
:103BA000FFFFFFFFFFFCFCFCFCFEFEFEFCFCF8F848
:103BB000F0E0C0C0000000000000000000000000B5
:103BC00000000000000000000000000000000000F5
:103BD0000000000000000000000000000080C0E0C5
:103BE000F1FBFFFFFFFFFF7F1F0F0F87E7FFFFFFC7
:103BF0001F1F3FF9F8F8F8F8F8F8FDFFFFFFFFFF87
:103C0000FFFFFFFF7F3F0F070100000000000000E3
:103C100000000000000000000000000000000000A4
:103C2000000000000000000000000000000000F0A4
:103C3000FEFFFFFFFFFFFFFFFFFFFFFE7E3F3F0F87
:103C40001FFFFFFFFCF0E0F1FFFFFFFFFFFCF001B3
:103C5000010101010101010000000000000000005D
:103C60000000000000000000000000000000000054
:103C70000000000000000000000000000000000044
:103C80000000000303030303030303010101010018
:103C9000000000000000030F1F3F7F7FFFFFFFFFBA
:103CA0007F7F1F03000000000000000000000000F4
:103CB0000000000000000000000000000000000004
:103CC000000000000000CB0580000000000032056D
:103CD0009304C9047F05FA04D804EC040000000032
:103CE0002F0C9304880F870F3309CA09D40EAC0E2A
:103CF000C80EBC0EDB0ECA09F5092209730E3A0E76
:103D0000F50DD80D600D010D54656D7020414432E4
:103D1000323130300041444320202020203A0056E8
:103D20006F6C74616765203A00566F6C74616765EB
:103D30000054656D70652020203A005472616E73E6
:103D400066657220436F6D706C6574652021000D8F
:023D50000A0067
:020000040003F7
:10E000000D9489F10D94B2F10D94B2F10D94B2F129
:10E010000D94B2F10D94B2F10D94B2F10D94B2F1F0
:10E020000D94B2F10D94B2F10D94B2F10D94B2F1E0
:10E030000D94B2F10D94B2F10D94B2F10D94B2F1D0
:10E040000D94B2F10D94B2F10D94B2F10D94B2F1C0
:10E050000D94B2F10D94B2F10D94B2F10D94B2F1B0
:10E060000D94B2F10D94B2F10D94B2F10D94B2F1A0
:10E070000D94B2F10D94B2F10D94B2F10D94B2F190
:10E080000D94B2F10D94B2F10D94B2F10D94B2F180
:10E090000D94B2F10D94B2F10D94B2F10D94B2F170
:10E0A0000D94B2F10D94B2F10D94B2F10D94B2F160
:10E0B0000D94B2F10D94B2F10D94B2F10D94B2F150
:10E0C0000D94B2F10D94B2F10D94B2F10D94B2F140
:10E0D0000D94B2F10D94B2F10D94B2F10D94B2F130
:10E0E0000D94B2F141546D656761323536300041AF
:10E0F000726475696E6F206578706C6F72657220DE
:10E1000073746B3530305632206279204D4C530099
:10E11000426F6F746C6F616465723E004875683F52
:10E1200000436F6D70696C6564206F6E203D200048
:10E130004350552054797065202020203D20005FF9
:10E140005F4156525F415243485F5F3D2000415658
:10E1500052204C696243205665723D20004743437C
:10E160002056657273696F6E203D20004350552024
:10E1700049442020202020203D20004C6F7720663D
:10E18000757365202020203D20004869676820665F
:10E190007573652020203D200045787420667573D6
:10E1A00065202020203D20004C6F636B2066757336
:10E1B000652020203D20004D617220203720323024
:10E1C000313300312E362E3800342E332E350056A2
:10E1D00023202020414444522020206F7020636F70
:10E1E00064652020202020696E73747275637469E1
:10E1F0006F6E2061646472202020496E74657272B3
:10E20000757074006E6F20766563746F7200726A49
:10E210006D702020006A6D70200057686174207056
:10E220006F72743A00506F7274206E6F7420737541
:10E2300070706F72746564004D7573742062652030
:10E2400061206C6574746572002000577269747483
:10E25000696E672045450052656164696E672045B7
:10E26000450045452065727220636E743D00504F35
:10E27000525400303D5A65726F2061646472003FF1
:10E280003D43505520737461747300403D454550C3
:10E29000524F4D207465737400423D426C696E6B41
:10E2A000204C454400453D44756D70204545505215
:10E2B0004F4D00463D44756D7020464C415348001B
:10E2C000483D48656C70004C3D4C69737420492F83
:10E2D0004F20506F72747300513D51756974005234
:10E2E0003D44756D702052414D00563D73686F7707
:10E2F00020696E7465727275707420566563746FF0
:10E30000727300593D506F727420626C696E6B00BD
:10E310002A0011241FBECFEFD1E2DEBFCDBF01E046
:10E320000CBF12E0A0E0B2E0EEE1FDEF03E00BBFB6
:10E3300002C007900D92A030B107D9F712E0A0E01B
:10E34000B2E001C01D92AE30B107E1F70F9460F367
:10E350000D948DFE01E20EBF0FEF0DBF11241FBE05
:10E360000D9460F30D9400F020E030E040ED57E0B4
:10E3700005C0FA013197F1F72F5F3F4F2817390792
:10E38000C0F308959C01260F311DC901A0E0B0E043
:10E390002F5F3F4FABBFFC018791882361F08093D3
:10E3A000C6008091C00086FFFCCF8091C0008064D1
:10E3B0008093C000EACF08958DE08093C6008091DD
:10E3C000C00086FFFCCF8091C00080648093C000B5
:10E3D0008AE08093C6008091C00086FFFCCF8091C8
:10E3E000C00080648093C00008950F94C2F10F9420
:10E3F000DCF10895FC019081992359F09093C600B7
:10E400008091C00086FFFCCF8091C0008064809323
:10E41000C0003196992379F70895282F982F929567
:10E420009F70892F805D8A3308F0895F8093C600D2
:10E430008091C00086FFFCCF8091C00080648093F3
:10E44000C000822F8F70982F905D9A3308F0995FEB
:10E450009093C6008091C00086FFFCCF8091C000E1
:10E4600080648093C00008959C01FB01853691056E
:10E470001CF46330710594F0C90164E670E00F94F8
:10E480002EFE605D7F4F6093C6008091C00086FFC6
:10E49000FCCF8091C00080648093C0002B30310598
:10E4A00014F43297B4F0C90164E670E00F942EFEC4
:10E4B0006AE070E00F942EFE605D7F4F6093C600AF
:10E4C0008091C00086FFFCCF8091C0008064809363
:10E4D000C000C9016AE070E00F942EFEC0968093E0
:10E4E000C6008091C00086FFFCCF8091C000806490
:10E4F0008093C00008951F93182F8EE692EE60E07F
:10E500000F94C2F11093C6008091C00086FFFCCF2B
:10E510008091C00080648093C0000F94DCF11F9153
:10E5200008952F923F924F925F926F927F928F92B7
:10E530009F92AF92BF92CF92DF92EF92FF920F9392
:10E540001F93DF93CF93CDB7DEB762970FB6F894E2
:10E55000DEBF0FBECDBF382E622ECA01DB015C01CB
:10E560006D01772420E2222E2E010894411C511CBB
:10E570008BC081E0A81680E0B80681E0C80680E084
:10E58000D80628F0C601AA27BB270F940DF2BB2797
:10E59000AD2D9C2D8B2D0F940DF28A2D0F940DF225
:10E5A0002092C6008091C00086FFFCCF8091C00001
:10E5B00080648093C0009DE29093C6008091C0006B
:10E5C00086FFFCCF8091C00080648093C0002092C1
:10E5D000C6008091C00086FFFCCF8091C00080649F
:10E5E0008093C00019828601750188249924A1E0D6
:10E5F0003A1651F03A1620F0B2E03B1661F409C029
:10E600000BBFF701779007C0C7010F9477FE782EF4
:10E6100002C0F7017080872D0F940DF22092C60082
:10E620008091C00086FFFCCF8091C0008064809301
:10E63000C000872D8052F401EF70F0708F3520F408
:10E64000E40DF51D708204C0E40DF51D8EE280839B
:10E650000894E11CF11C011D111D0894811C911CE2
:10E6600090E18916910409F0C2CF80E190E0A0E02A
:10E67000B0E0A80EB91ECA1EDB1E198AC2010F9493
:10E68000FAF10F94DCF16A94662009F072CF629679
:10E690000FB6F894DEBF0FBECDBFCF91DF911F91B3
:10E6A0000F91FF90EF90DF90CF90BF90AF909F9031
:10E6B0008F907F906F905F904F903F902F90089534
:10E6C0002F923F924F925F926F927F928F929F9282
:10E6D000AF92BF92CF92DF92EF92FF920F931F9370
:10E6E000DF93CF93CDB7DEB7CD53D1400FB6F894BB
:10E6F000DEBF0FBECDBF01E20EBF0FEF0DBF94B75F
:10E70000F894A89514BE80916000886180936000A1
:10E7100010926000789493FF05C0E0910002F091A0
:10E7200001021995279A2F9A8091C00082608093E8
:10E73000C00080E18093C40088E18093C1000000A4
:10E74000EE24FF24870144E0A42EB12CCC24DD2448
:10E7500024C0C5010197F1F70894E11CF11C011DCB
:10E76000111D21E2E2162EE4F20620E0020720E06D
:10E77000120718F031E0C32ED12CC801B70127ECE5
:10E780003BE140E050E00F9441FE611571058105C9
:10E79000910519F485B1805885B98091C00087FD35
:10E7A00003C0C114D104A9F2A6014F5F5F4FC25E3E
:10E7B000DE4F59834883CE51D140C25EDE4F8881FF
:10E7C0009981CE51D140019711F00D9410FEC05D9A
:10E7D000DE4F19821882C053D14060E0C15DDE4F28
:10E7E0001882CF52D14088249924C35DDE4F19820C
:10E7F0001882CD52D140C05EDE4F188219821A8233
:10E800001B82C052D140CE5CDE4F188219821A8220
:10E810001B82C253D140EE24FF2487010BBFF701B6
:10E8200007911691C45CDE4F19830883CC53D14005
:10E830000D940BFEC25EDE4F28813981CE51D1404E
:10E840002130310509F52091C600C25EDE4F1982E4
:10E850001882CE51D14022C02F5F3F4F4F4F5F4FA4
:10E86000213082E138078AE7480780E0580780F0C6
:10E87000C45CDE4FE881F981CC53D140EF5FFF4F9C
:10E8800019F0EE27FF27099420E030E040E050E047
:10E890008091C00087FFE0CF2091C600C35DDE4FAE
:10E8A00048815981CD52D1404F5F5F4FC35DDE4FEC
:10E8B00059834883CD52D140213209F063C64A3092
:10E8C000510508F05FC60894811C911C53E0851621
:10E8D000910409F059C600E010E018C081E280936D
:10E8E000C6008091C00086FFFCCF8091C00080648C
:10E8F0008093C0002F5F3F4F2931310579F70F9486
:10E90000DCF10F5F1F4F0530110519F020E030E0FA
:10E91000E5CF10920A0210920B0210920C02109294
:10E920000D02109206021092070210920802109235
:10E930000902109202021092030210920402109235
:10E9400005028FEE90EE60E00F94F5F180E191EE1C
:10E9500060E00F94C2F18091C00087FFFCCF9091DE
:10E96000C600903608F09F759032B8F09093C600BC
:10E970008091C00086FFFCCF8091C00080648093AE
:10E98000C000A0E2A093C6008091C00086FFFCCF2B
:10E990008091C00080648093C000983409F4D7C18E
:10E9A0009934B8F4923409F459C1933458F490333B
:10E9B00019F1903308F4E3C59F33A1F1903409F0C5
:10E9C000DEC5BDC0953409F470C1963409F0D7C5D1
:10E9D00098C1923509F42BC2933538F49C3409F46C
:10E9E000F5C1913509F0CBC518C2963509F445C279
:10E9F000993509F0C4C567C483E792EE62E00F94CD
:10EA0000F5F110920602109207021092080210927D
:10EA1000090210920A0210920B0210920C0210923C
:10EA20000D0213C18FE792EE62E00F94F5F18FEEC5
:10EA300090EE60E00F94F5F181E291EE60E00F94CA
:10EA4000C2F187EB91EE60E00F94F5F180E391EE77
:10EA500060E00F94C2F184EE90EE60E00F94F5F167
:10EA60008FE391EE60E00F94C2F186E090E061E008
:10EA700070E00F9434F20F94DCF18DE591EE60E0DC
:10EA80000F94C2F189EC91EE60E00F94F5F18EE401
:10EA900091EE60E00F94C2F183EC91EE60E00F9490
:10EAA000F5F18CE691EE60E00F94C2F18EE10F94E7
:10EAB0000DF288E90F940DF281E00F940DF20F949E
:10EAC000DCF18BE791EE60E00F94C2F119E0E0E039
:10EAD000F0E010935700E4918E2F0F940DF20F94F5
:10EAE000DCF18AE891EE60E00F94C2F1E3E0F0E03F
:10EAF00010935700E4918E2F0F940DF20F94DCF1D8
:10EB000089E991EE60E00F94C2F1E2E0F0E0109349
:10EB10005700E4918E2F0F940DF20F94DCF188EAE8
:10EB200091EE60E00F94C2F1E1E0F0E01093570045
:10EB30001491812F0F940DF20F94DCF107CF8BE825
:10EB400092EE62E00F94F5F18BE492EE60E00F94A8
:10EB5000F5F10F94DCF100E010E019C0C8016F2D51
:10EB60000F947FFEFF2031F489E492EE60E00F9471
:10EB7000C2F10BC0F092C6008091C00086FFFCCFAE
:10EB80008091C00080648093C0000F5F1F4FC80158
:10EB900081519F41A0E0B0E0ABBFFC01F790BAE229
:10EBA000FB1621F0E2E000301E07C1F60F94DCF105
:10EBB0000F94DCF187E592EE60E00F94F5F10F948D
:10EBC000DCF1CC24DD2400E010E01EC0C8010F946D
:10EBD00077FEF82E882331F489E492EE60E00F94FA
:10EBE000C2F10BC08093C6008091C00086FFFCCFAD
:10EBF0008091C00080648093C000FE1419F00894D6
:10EC0000C11CD11C0F5F1F4FC80181519F41A0E063
:10EC1000B0E0ABBFFC01E790FAE2EF1621F022E092
:10EC20000030120799F60F94DCF10F94DCF182E6C4
:10EC300092EE60E00F94C2F1C60161E070E00F94C3
:10EC400034F20F94DCF10F94DCF110920202109276
:10EC50000302109204021092050278CE89E992EE26
:10EC600062E00F94F5F1279A2F9A16C02F9880E052
:10EC700090E0E0EDF7E03197F1F7019684369105E9
:10EC8000C1F72F9A80E090E0E0EDF7E03197F1F7DF
:10EC9000019684369105C1F78091C00087FFE6CFC9
:10ECA0008091C00087FFFCCF64C485EA92EE62E0E9
:10ECB0000F94F5F140910202509103026091040219
:10ECC0007091050281E020E10F9491F2809102029F
:10ECD00090910302A0910402B091050280509F4FD1
:10ECE000AF4FBF4F8093020290930302A0930402A0
:10ECF000B093050280509041A040B04008F426CE69
:10ED0000A4CF83EB92EE62E00F94F5F140910602FE
:10ED100050910702609108027091090280E020E1A1
:10ED20000F9491F28091060290910702A09108023F
:10ED3000B091090280509F4FAF4FBF4F80930602A2
:10ED400090930702A0930802B0930902FFCD80ECD4
:10ED500092EE62E00F94F5F183E792EE60E00F949B
:10ED6000F5F18FE792EE60E00F94F5F18BE892EE0B
:10ED700060E00F94F5F189E992EE60E00F94F5F10F
:10ED800085EA92EE60E00F94F5F183EB92EE60E09D
:10ED90000F94F5F180EC92EE60E00F94F5F187ECC2
:10EDA00092EE60E00F94F5F188ED92EE60E00F9442
:10EDB000F5F18FED92EE60E00F94F5F18AEE92EEB0
:10EDC00060E00F94F5F183E093EEBDCD87EC92EE19
:10EDD00062E00F94F5F181E40F947BF282E40F94EA
:10EDE0007BF283E40F947BF284E40F947BF285E45E
:10EDF0000F947BF286E40F947BF287E40F947BF20E
:10EE000088E40F947BF28AE40F947BF28BE40F94F6
:10EE10007BF28CE40F947BF299CD88ED92EE62E068
:10EE20000F94F5F1772473948824992409C48FED05
:10EE300092EE62E00F94F5F140910A0250910B02BC
:10EE400060910C0270910D0282E020E10F9491F22A
:10EE500080910A0290910B02A0910C02B0910D02D8
:10EE600080509F4FAF4FBF4F80930A0290930B0289
:10EE7000A0930C02B0930D0269CD8AEE92EE62E08F
:10EE80000F94F5F184EE90EE60E00F94F5F18FECC5
:10EE900091EE60E00F94F5F1662477244301CC5D98
:10EEA000DE4F19821882C452D140D401C301B695F5
:10EEB000A79597958795CA5DDE4F88839983AA8326
:10EEC000BB83C652D140CC5DDE4FA881B981C4520C
:10EED000D1401196CC5DDE4FB983A883C452D14096
:10EEE000CD0162E070E00F9434F2B0E2B093C6005E
:10EEF0008091C00086FFFCCF8091C0008064809329
:10EF0000C000EDE2E093C6008091C00086FFFCCF18
:10EF10008091C00080648093C000F0E2F093C6004E
:10EF20008091C00086FFFCCF8091C00080648093F8
:10EF3000C000CA5DDE4FE880F9800A811B81C6529D
:10EF4000D140BB27A12F902F8F2D0F940DF2CA5DBA
:10EF5000DE4F8881C652D1400F940DF2B0E2FB2EF5
:10EF6000F092C6008091C00086FFFCCF8091C00067
:10EF700080648093C0000DE30093C6008091C000C0
:10EF800086FFFCCF8091C00080648093C00010E2B7
:10EF90001093C6008091C00086FFFCCF8091C00016
:10EFA00080648093C0008BBEF3012791C65DDE4F65
:10EFB0002883CA52D140A22EBB24CC24DD2408943D
:10EFC000611C711C811C911C8BBEF3018791282E42
:10EFD0003324442455240894611C711C811C911C09
:10EFE0008BBEF3013791C55DDE4F3883CB52D140E4
:10EFF0000894611C711C811C911C8BBEF30147910C
:10F00000C45DDE4F4883CC52D140ADEFEA2EAFEF66
:10F01000FA2EAFEF0A2FAFEF1A2F6E0C7F1C801E57
:10F02000911E142D032DF22CEE24EA0CFB1C0C1D5A
:10F030001D1D0F940DF220E22093C6008091C000A8
:10F0400086FFFCCF8091C00080648093C000C65DC5
:10F05000DE4F8881CA52D1400F940DF230E23093D6
:10F06000C6008091C00086FFFCCF8091C000806404
:10F070008093C000C45DDE4F8881CC52D1400F9494
:10F080000DF240E24093C6008091C00086FFFCCFA5
:10F090008091C00080648093C000C55DDE4F888190
:10F0A000CB52D1400F940DF250E25093C6008091A4
:10F0B000C00086FFFCCF8091C00080648093C000B8
:10F0C0008FEFE8168FEFF80680E0080780E018075A
:10F0D00031F484E092EE60E00F94C2F1DFC0D80119
:10F0E000C7018070907CA070B0708050904CA040A0
:10F0F000B040D1F52FEF3FE340E050E0E222F322B1
:10F1000004231523CA5DDE4FA880B980CA80DB8046
:10F11000C652D140AE0CBF1CC01ED11EAA0CBB1CD7
:10F12000CC1CDD1C8EE092EE60E00F94C2F1BB2798
:10F13000A12F902F8F2D0F940DF28E2D0F940DF285
:10F1400030E23093C6008091C00086FFFCCF8091F2
:10F15000C00080648093C0004EE34093C60080915D
:10F16000C00086FFFCCF87C08EE09EEFA0E0B0E03D
:10F17000E822F9220A231B239CE0E91694E9F90608
:10F1800090E0090790E0190709F088C0C45DDE4FE0
:10F19000A881CC52D140EA2EFF2400E010E0102FCD
:10F1A0000F2DFE2CEE24C55DDE4FB881CB52D14031
:10F1B000EB0EF11C011D111DD601C501817090706F
:10F1C000A070B070DC0199278827E80EF91E0A1F8D
:10F1D0001B1F20EF30E040E050E0A222B322C42207
:10F1E000D52241E1AA0CBB1CCC1CDD1C4A95D1F7F1
:10F1F000EA0CFB1C0C1D1D1D81E090E0A0E0B0E0BE
:10F20000282239224A225B2235E1220C331C441C7D
:10F21000551C3A95D1F7E20CF31C041D151D57013E
:10F220006801AA0CBB1CCC1CDD1C85E192EE60E0E1
:10F230000F94C2F1C801AA27BB270F940DF2BB2778
:10F24000A12F902F8F2D0F940DF28E2D0F940DF274
:10F2500090E29093C6008091C00086FFFCCF809121
:10F26000C00080648093C000AEE3A093C60080918C
:10F27000C00086FFFCCF8091C00080648093C000F6
:10F28000C601AA27BB270F940DF2BB27AD2D9C2DDD
:10F290008B2D0F940DF28A2D0F940DF20F94DCF14B
:10F2A000CC5DDE4FE881F981C452D140F99709F471
:10F2B0004DCBF4E0EF2EF12C012D112D6E0C7F1CA7
:10F2C000801E911EF2CD83E093EE62E00F94F5F183
:10F2D0008AE192EE60E00F94C2F18091C00087FF56
:10F2E000FCCF1091C6001F751093C6008091C0001E
:10F2F00086FFFCCF8091C00080648093C0000F9493
:10F30000DCF1812F81548A3108F036C1163409F4BA
:10F3100095C0173490F4133409F44EC0143430F40B
:10F320001134F1F0123409F01DC130C0143409F465
:10F3300059C0153409F016C16BC01A3409F4C4C0A1
:10F340001B3438F4173409F48FC0183409F00AC19B
:10F35000A1C01B3409F4D2C01C3409F003C1E8C0B9
:10F360008FEF81B90DC082B1809582B980E090E0C5
:10F37000E0EDF7E03197F1F70196883C9105C1F790
:10F380008091C00087FFEFCF12B8EFC08FEF84B934
:10F390000DC085B1809585B980E090E0E0EDF7E0A3
:10F3A0003197F1F70196883C9105C1F78091C00033
:10F3B00087FFEFCF15B8D9C08FEF87B90DC088B1DF
:10F3C000809588B980E090E0E0EDF7E03197F1F7C3
:10F3D0000196883C9105C1F78091C00087FFEFCF6F
:10F3E00018B8C3C08FEF8AB90DC08BB180958BB9A7
:10F3F00080E090E0E0EDF7E03197F1F70196883C8E
:10F400009105C1F78091C00087FFEFCF1BB8ADC059
:10F410008FEF8DB90DC08EB180958EB980E090E0F0
:10F42000E0EDF7E03197F1F70196883C9105C1F7DF
:10F430008091C00087FFEFCF1EB897C08FEF80BBD1
:10F440000DC081B3809581BB80E090E0E0EDF7E0F6
:10F450003197F1F70196883C9105C1F78091C00082
:10F4600087FFEFCF11BA81C08FEF83BB0DC084B38C
:10F47000809584BB80E090E0E0EDF7E03197F1F714
:10F480000196883C9105C1F78091C00087FFEFCFBE
:10F4900014BA6BC08FEF809301010FC080910201FD
:10F4A00080958093020180E090E0E0EDF7E03197F5
:10F4B000F1F70196883C9105C1F78091C00087FF64
:10F4C000EDCF1092020151C08FEF809304010FC065
:10F4D0008091050180958093050180E090E0E0ED4A
:10F4E000F7E03197F1F70196883C9105C1F78091DB
:10F4F000C00087FFEDCF1092050137C08FEF8093DA
:10F5000007010FC08091080180958093080180E079
:10F5100090E0E0EDF7E03197F1F70196883C910536
:10F52000C1F78091C00087FFEDCF109208011DC088
:10F530008FEF80930A010FC080910B01809580931B
:10F540000B0180E090E0E0EDF7E03197F1F70196F4
:10F55000883C9105C1F78091C00087FFEDCF1092E4
:10F560000B0103C085E292EEEEC98091C00087FFD7
:10F57000FCCF8091C600EAC988E392EEE4C98CE131
:10F5800091EEE1C988249924933011F1943028F444
:10F59000913089F09230B8F408C0953061F195301F
:10F5A000F0F0963009F048C043C02B3109F042C951
:10F5B00091E06BE13FC96227C15DDE4F2883CF52E6
:10F5C000D14092E037C9B22FA0E0622793E032C960
:10F5D000822F90E0A82BB92B622794E02BC92E3004
:10F5E00009F039C3622795E0C05DDE4F19821882A9
:10F5F000C053D1401FC9E1E0F0E0EC0FFD1FC05D3A
:10F60000DE4F08811981C053D140E00FF11F2083E4
:10F610000F5F1F4FC05DDE4F19830883C053D14079
:10F6200062270A171B0709F005C9D80196E002C92D
:10F63000261709F010C303C0973009F0FBC87724E0
:10F640009981933109F412C19431C8F4963009F4C8
:10F65000D8C0973050F4923009F406C1933009F4C1
:10F660006DC0913009F059C253C0913109F477C08F
:10F67000923108F0BBC0903109F04FC2F5C098310B
:10F6800009F487C0993150F4953109F4EFC09531F0
:10F6900008F4C6C1963109F040C2C2C19A3109F4DA
:10F6A0006CC09A3108F491C09B3109F45BC09D3164
:10F6B00009F033C29D81903359F48F81882311F46E
:10F6C0009EE11CC0813011F091E018C098E916C08D
:10F6D000892F807591F0903539F4E0E0F0E089E011
:10F6E0008093570094910AC0983539F4E3E0F0E034
:10F6F00089E080935700949101C090E01A821B82A8
:10F700008D818C831D829E831F8227E030E009C299
:10F710001A8288E08B8381E48C8386E58D8382E581
:10F720008E8389E48F8383E5888780E589878FE5E9
:10F730008A8782E38B872BE030E0F3C18A818139AD
:10F7400041F0823941F0803911F48FE005C080E04A
:10F7500003C082E001C08AE01A828B8344C0772410
:10F76000739482C08D81882311F48EE12CC0813086
:10F7700011F081E028C088E926C01A82E1E0F0E0BB
:10F7800089E08093570084918B831C8224E030E0D1
:10F79000C8C18B81803589F48C81883039F4E2E0EE
:10F7A000F0E089E08093570084910DC0E0E0F0E044
:10F7B00089E080935700849106C0E3E0F0E089E09F
:10F7C0008093570084911A82DFCF8D81836C99E0FA
:10F7D000E1E0F0E0082E90935700E89507B600FCB2
:10F7E000FDCF1A821B8223E030E09BC180EC8A832C
:10F7F000CE5CDE4F188219821A821B82C253D1401E
:10F800008EC18A8190E0A0E0B0E0582F44273327D2
:10F8100022278B8190E0A0E0B0E0DC0199278827C7
:10F82000282B392B4A2B5B2B8D8190E0A0E0B0E098
:10F83000282B392B4A2B5B2B8C8190E0A0E0B0E089
:10F84000BA2FA92F982F8827282B392B4A2B5B2BCF
:10F85000220F331F441F551FC05EDE4F288339839C
:10F860004A835B83C052D1401A8259C13A81C95C34
:10F87000DE4F3883C753D140CA5CDE4F1882C6536F
:10F88000D1408B81C82EDD24CA5CDE4F488159816E
:10F89000C653D140C42AD52A933109F082C0CE5C28
:10F8A000DE4F88819981AA81BB81C253D1408050AB
:10F8B000904CA340B04030F583E0CE5CDE4FE88052
:10F8C000F9800A811B81C253D140F70100935B008C
:10F8D00080935700E89507B600FCFDCFCE5CDE4F65
:10F8E000088119812A813B81C253D14000501F4FAA
:10F8F0002F4F3F4FCE5CDE4F088319832A833B8313
:10F90000C253D140C05EDE4F488159816A817B81FC
:10F91000C052D140DE011B9631E08C9111962C91A2
:10F9200011971296C75CDE4F2883C953D140C85C3B
:10F93000DE4F1882C853D14090E0C85CDE4FE881AA
:10F94000F981C853D1408E2B9F2B0C01FA01609393
:10F950005B0030935700E89511244E5F5F4F6F4F67
:10F960007F4F0EEFE02E0FEFF02ECE0CDF1CC114F8
:10F97000D10499F685E0C05EDE4F088119812A81A5
:10F980003B81C052D140F80120935B008093570027
:10F99000E89507B600FCFDCF81E180935700E8951C
:10F9A00035C0C05EDE4F88819981AA81BB81C0527B
:10F9B000D140B695A795979587957C018601ABE0D8
:10F9C000AA2EB12CAC0EBD1E0BC0D5016D915D01F0
:10F9D000C7010F947FFE0894E11CF11C01501040F8
:10F9E0000115110591F7A60160E070E0440F551F65
:10F9F000661F771FC05EDE4FE880F9800A811B8199
:10FA0000C052D1404E0D5F1D601F711F1A82C05E33
:10FA1000DE4F488359836A837B83C052D1407FC0C5
:10FA2000FA80C55CDE4FF882CB53D140C65CDE4F16
:10FA30001882CA53D1408B81C82EDD24C65CDE4FAC
:10FA400008811981CA53D140C02AD12A1A828981DA
:10FA5000BE016D5F7F4F843121F59601C05EDE4FA0
:10FA6000E880F9800A811B81C052D1400BBFF701A9
:10FA700087919691DB018C9311969C936E5F7F4FDB
:10FA8000D801C7010296A11DB11DC05EDE4F88835B
:10FA90009983AA83BB83C052D14022503040F1F6F3
:10FAA00036C0C05EDE4F288139814A815B81C052F9
:10FAB000D1400894C108D108760100E010E0089414
:10FAC000C11CD11C0894E11CF11C011D111DE20E8A
:10FAD000F31E041F151F21BDBB27A52F942F832FB5
:10FAE00082BD2F5F3F4F4F4F5F4FF89A80B5DB01CC
:10FAF0008D93BD012E153F054007510761F7C05E8C
:10FB0000DE4F288339834A835B83C052D1409601FC
:10FB10002D5F3F4FFB01108204C080EC8A8322E0FE
:10FB200030E08BE18093C6008091C00086FFFCCF5F
:10FB30008091C00080648093C000C15DDE4FF88179
:10FB4000CF52D140F093C6008091C00086FFFCCF19
:10FB50008091C00080648093C000432F3093C60022
:10FB60008091C00086FFFCCF8091C00080648093AC
:10FB7000C000922F2093C6008091C00086FFFCCF6A
:10FB80008091C00080648093C0008EE08093C600A6
:10FB90008091C00086FFFCCF8091C000806480937C
:10FBA000C00065E1C15DDE4FE880CF52D1406E25D7
:10FBB00069276427FE01319610C090819093C6009A
:10FBC0008091C00086FFFCCF31968091C000806498
:10FBD0008093C0006927215030402115310569F715
:10FBE0006093C6008091C00086FFFCCF8091C0006A
:10FBF00080648093C00085B1805885B9772081F4F6
:10FC0000C15DDE4F0881CF52D1400F5FC15DDE4F35
:10FC10000883CF52D14090E0A0E0B0E00D941AF4F8
:10FC200027982F9880E090E020ED37E0F901319798
:10FC3000F1F7019684369105C9F700008091C00064
:10FC40008D7F8093C00081E180935700E895EE2777
:10FC5000FF270994FFCF90E00D941AF497FB092E2B
:10FC600007260AD077FD04D02ED006D000201AF443
:10FC7000709561957F4F0895F6F7909581959F4F08
:10FC80000895A1E21A2EAA1BBB1BFD010DC0AA1FDD
:10FC9000BB1FEE1FFF1FA217B307E407F50720F0F5
:10FCA000A21BB30BE40BF50B661F771F881F991F70
:10FCB0001A9469F760957095809590959B01AC01B9
:10FCC000BD01CF010895AA1BBB1B51E107C0AA1FAC
:10FCD000BB1FA617B70710F0A61BB70B881F991FED
:10FCE0005A95A9F780959095BC01CD010895F99991
:10FCF000FECF92BD81BDF89A992780B50895262F31
:10FD0000F999FECF1FBA92BD81BD20BD0FB6F89400
:0EFD1000FA9AF99A0FBE01960895F894FFCF63
:00000001FF
