:020000040000FA
:100000000C945D000C9485000C9485000C94850084
:100010000C9485000C9485000C9485000C9485004C
:100020000C9485000C9485000C9485000C9485003C
:100030000C9485000C9485000C9485000C9485002C
:100040000C943C050C9485000C940A050C94E40473
:100050000C9485000C9485000C9485000C9485000C
:100060000C9486050C9485000000000025002800F3
:100070002B000000000023002600290004040404D3
:100080000404040402020202020203030303030342
:10009000010204081020408001020408102001021F
:1000A00004081020000000080002010000030407FB
:1000B0000000000000000000A50611241FBECFEFC5
:1000C000D8E0DEBFCDBF22E0AEE5B1E001C01D92B9
:1000D000AC3DB207E1F711E0A0E0B1E0E8EEF6E1F7
:1000E00002C005900D92AE35B107D9F710E0CDE50D
:1000F000D0E004C02197FE010E947A09CC35D107D7
:10010000C9F70E94ED060C94720B0C940000089540
:100110000895AF92BF92CF92DF92EF92FF920F932A
:100120001F93CF93DF936C017B018B01040F151F8D
:10013000EB015E01AE18BF08C017D10759F06991F5
:10014000D601ED91FC910190F081E02DC601099559
:10015000892B79F7C501DF91CF911F910F91FF9006
:10016000EF90DF90CF90BF90AF900895FC01538D3A
:10017000448D252F30E0842F90E0821B930B541781
:1001800010F0CF96089501970895FC01918D828D0E
:10019000981761F0A28DAE0FBF2FB11D5D968C91A7
:1001A000928D9F5F9F73928F90E008958FEF9FEFE6
:1001B0000895FC01918D828D981731F0828DE80FA2
:1001C000F11D858D90E008958FEF9FEF0895FC015C
:1001D000918D228D892F90E0805C9F4F821B910929
:1001E0008F739927089583E292E00E94E70021E04F
:1001F000892B09F420E0822F089580E090E0892B7C
:1002000029F00E94F30081110C9400000895FC0174
:10021000A48DA80FB92FB11DA35ABF4F2C91848D67
:1002200090E001968F739927848FA689B7892C93C4
:10023000A089B1898C91837080648C93938D848D17
:10024000981306C00288F389E02D80818F7D80831A
:100250000895EF92FF920F931F93CF93DF93EC01DA
:1002600081E0888F9B8D8C8D98131AC0E889F9895D
:10027000808185FF15C09FB7F894EE89FF89608360
:10028000E889F98980818370806480839FBF81E0E1
:1002900090E0DF91CF911F910F91FF90EF90089523
:1002A000F62E0B8D10E00F5F1F4F0F731127E02EFE
:1002B0008C8D8E110CC00FB607FCFACFE889F98936
:1002C000808185FFF5CFCE010E940701F1CFEB8D34
:1002D000EC0FFD2FF11DE35AFF4FF0829FB7F8940A
:1002E0000B8FEA89FB8980818062CFCFCF93DF9328
:1002F000EC01888D8823B9F0AA89BB89E889F9893E
:100300008C9185FD03C0808186FD0DC00FB607FC72
:10031000F7CF8C9185FFF2CF808185FFEDCFCE01A5
:100320000E940701E9CFDF91CF910895833081F0DA
:1003300028F4813099F08230A9F008958730A9F02F
:100340008830C9F08430B1F4809180008F7D03C083
:10035000809180008F7780938000089584B58F7797
:1003600084BD089584B58F7DFBCF8091B0008F77D9
:100370008093B00008958091B0008F7DF9CF1F93D6
:10038000CF93DF93282F30E0F901EC55FF4F849194
:10039000F901E057FF4FD491F901E458FF4FC491A0
:1003A000CC23A9F0162F81110E949601EC2FF0E0CA
:1003B000EE0FFF1FE859FF4FA591B4918FB7F89446
:1003C000EC91111108C0D095DE23DC938FBFDF9133
:1003D000CF911F910895DE2BF8CF3FB7F89480910D
:1003E000150290911602A0911702B091180226B53D
:1003F000A89B05C02F3F19F00196A11DB11D3FBF5D
:10040000BA2FA92F982F8827BC01CD01620F711D2B
:10041000811D911D42E0660F771F881F991F4A9525
:10042000D1F708958F929F92AF92BF92CF92DF92B1
:10043000EF92FF924B015C010E94ED016B017C0188
:100440000E94ED016C197D098E099F09683E734079
:1004500081059105A8F321E0821A9108A108B1084D
:1004600088EEC80E83E0D81EE11CF11C81149104B3
:10047000A104B10429F7FF90EF90DF90CF90BF90D7
:10048000AF909F908F900895089520919F01260F1F
:100490003327331F21323105ECF42091E801FC01B0
:1004A00090E080E0243069F082E00895A0919F01FF
:1004B0002191AC0141585E4FA40FB52FB11D2C9373
:1004C0000196861798F380919F01680F60939F01B2
:1004D00080E0089581E008951092E80181E0809322
:1004E000E7011092C20161E082E10E94BF0161E078
:1004F00083E10E94BF01E9EBF0E080818E7F808381
:1005000080818D7F808388E48093B80085E4809328
:10051000BC000895CF93DF9391E090937E018823F0
:10052000B9F0C091B800D091BA008091BC008A7B2C
:100530008093BC0060E082E10E94BF0160E083E143
:100540000E94BF010E946C02D093BA00C093B80011
:10055000DF91CF9108950895E091200280911F02CC
:10056000E81730F4F0E0E25AFE4F808190E0089501
:100570008FEF9FEF08959091200280911F022FEF3F
:100580003FEF981748F4E92FF0E0E25AFE4F208140
:1005900030E09F5F90932002C901089580911F026F
:1005A00090912002891B990B0895CF92DF92EF92D0
:1005B000FF920F931F93CF93DF937C01CB018A01AE
:1005C0002091EE01222389F0EB016B01C40ED51EB0
:1005D000CC15DD0569F06991D701ED91FC91019091
:1005E000F081E02DC7010995F3CF642F0E944502E9
:1005F000C801DF91CF911F910F91FF90EF90DF9095
:10060000CF900895CF93DF931F92CDB7DEB7698364
:100610002091EE012223F9F020911D02203258F0A2
:1006200021E030E0FC013383228390E080E00F90F2
:10063000DF91CF91089580911E02E82FF0E0E15103
:10064000FE4F998190838F5F80931E0280931D02DD
:1006500081E090E0ECCF61E0CE0101960E9445027E
:10066000F7CFCF92DF92EF92FF920F931F93CF932A
:10067000DF93FC01C48121E02093EE01C0930F02BF
:1006800010921E0210921D028385682B80EC92E06E
:100690000E940203D0911D02D13208F092C00E9444
:1006A000ED016B017C018091E801811165C082E060
:1006B0008093E80181E08093E7018FEF8093E6016A
:1006C0001092E501D093E401AFEEB1E0E4ECF1E08B
:1006D00080E0D81385C01092C3018091C301CC0F74
:1006E000C82BC093C3018091C201813009F07CC046
:1006F0001092C2010E94ED016B017C018091C30147
:100700008093BB008091EA019091EB01A091EC01F4
:10071000B091ED01892B8A2B8B2B99F00E94ED0172
:100720000091EA011091EB012091EC013091ED0173
:100730006C197D098E099F090617170728073907C5
:10074000E0F18091BC0083FDD9CF85EC8093BC00A3
:100750000E94ED016B017C018091E801823009F477
:1007600045C08091E6018F3F61F18091E6018032C2
:1007700041F18091E60125C08091EA019091EB0161
:10078000A091EC01B091ED01892B8A2B8B2B09F400
:100790008ACF0E94ED010091EA011091EB012091B6
:1007A000EC013091ED016C197D098E099F09061746
:1007B00017072807390708F076CF8091E9010E94D2
:1007C0008A0210921E0210921D021092EE01DF9119
:1007D000CF911F910F91FF90EF90DF90CF900895F0
:1007E0009D9191938F5F75CF85EEB0CF8091EA0197
:1007F0009091EB01A091EC01B091ED01892B8A2B36
:100800008B2B09F4A9CF0E94ED010091EA01109110
:10081000EB012091EC013091ED016C197D098E09FD
:100820009F09061717072807390708F095CFC5CF86
:1008300090E080E008950F931F93CF93DF93EC0136
:1008400088819981009759F02A813B8126173707C3
:1008500030F081E0DF91CF911F910F9108958B01CE
:100860006F5F7F4F0E94A50A009759F09983888394
:100870001B830A832C813D81232B59F7FC011082B5
:10088000E8CF80E0E7CF0F931F93CF938C01C62F63
:100890000E9431036C2F6460C8010E9431036C2FE9
:1008A0006B7FC8010E94310383EC90E00197F1F760
:1008B000CF911F910F9108950F931F93CF93DF93C3
:1008C0008C01D62FC42F607F642B0E94430480E1EB
:1008D000D89FB00111246C2BC801DF91CF911F91DB
:1008E0000F910C944304CF93DF93CDB7DEB72897D5
:1008F0000FB6F894DEBF0FBECDBF98E0E6E0F1E0A2
:10090000DE01119601900D929A95E1F79091D40233
:10091000961708F46FEF262F30E0220F331F41E0C7
:1009200050E04C0F5D1F240F351FF9016081680FE7
:10093000606840E08CEC92E028960FB6F894DEBF39
:100940000FBECDBFDF91CF910C945C0441E00E94BB
:100950005C0481E090E0089585ED8093BC00809177
:10096000EA019091EB01A091EC01B091ED010796A5
:10097000A11DB11D23E0B695A795979587952A955A
:10098000D1F72091BC0024FD03C01092E801089526
:100990004091EA015091EB016091EC017091ED0101
:1009A000452B462B472B69F30097A105B10541F074
:1009B0002AE22A95F1F700C00197A109B109E1CF18
:1009C0008091E9010C948A021F920F920FB60F9248
:1009D00011242F933F934F935F936F937F938F9344
:1009E0009F93AF93BF93EF93FF9383E292E00E94B4
:1009F0000701FF91EF91BF91AF919F918F917F91EF
:100A00006F915F914F913F912F910F900FBE0F907B
:100A10001F9018951F920F920FB60F9211242F93CB
:100A20008F939F93EF93FF93E0913302F091340201
:100A30008081E0913902F0913A0282FD1BC09081E1
:100A400080913C028F5F8F7320913D02821741F0AD
:100A5000E0913C02F0E0ED5DFD4F958F80933C020C
:100A6000FF91EF919F918F912F910F900FBE0F905B
:100A70001F9018958081F4CF1F920F920FB60F929E
:100A800011242F933F938F939F93AF93BF938091A4
:100A9000110290911202A0911302B09114023091B0
:100AA000100223E0230F2D3758F50196A11DB11D2B
:100AB000209310028093110290931202A0931302CC
:100AC000B09314028091150290911602A091170222
:100AD000B09118020196A11DB11D8093150290934B
:100AE0001602A0931702B0931802BF91AF919F9185
:100AF0008F913F912F910F900FBE0F901F901895DF
:100B000026E8230F0296A11DB11DD2CF1F920F928E
:100B10000FB60F9211242F933F934F935F936F93D0
:100B20007F938F939F93AF93BF93EF93FF938091A6
:100B3000B900887F803609F44AC0F0F5883209F49C
:100B4000A7C018F5803109F49BC0B8F4882309F4D4
:100B5000F9C0883009F494C0FF91EF91BF91AF9133
:100B60009F918F917F916F915F914F913F912F91C5
:100B70000F900FBE0F901F901895883109F488C010
:100B8000803251F78093E60114C0803409F49DC08F
:100B900040F48033B9F38833F9F68093E60185ECAD
:100BA000B0C0803509F485C0883509F496C0883412
:100BB00099F60E94AC04D0CF883909F48CC038F57E
:100BC000883729F050F4883611F0803729F683E011
:100BD0008093E8011092C10157C0883809F47BC0A6
:100BE000803919F0803809F0B7CF8091C101803287
:100BF00008F071C0E091C10181E08E0F8093C101C6
:100C00008091BB00F0E0EF55FE4F80833DC0803BFC
:100C100039F0E0F4803A09F479C0883A09F09CCFC1
:100C200084E08093E8011092A00110929F01E0916E
:100C30001B02F0911C02099580919F0181110FC048
:100C400081E080939F0110927F0109C0803C09F4EC
:100C5000A6CF883C09F4A3CF883B09F07DCFE09173
:100C6000A00181E08E0F8093A001F0E0E158FE4FDB
:100C700080818093BB009091A00180919F0129C049
:100C80008091C3018093BB0085EC8093BC0064CF4E
:100C90009091E5018091E401981758F5E091E50104
:100CA00081E08E0F8093E501F0E0EC53FE4F8081F0
:100CB000E9CFE091E50181E08E0F8093E50180911D
:100CC000BB00F0E0EC53FE4F80839091E5018091F2
:100CD000E4019817C8F285E8D8CFE091E50181E0FA
:100CE0008E0F8093E5018091BB00F0E0EC53FE4F46
:100CF00080838091E70181115CCF81E08093C20104
:100D000084EA8093BC001092E80126CF85EC8093A2
:100D1000BC001092E8018091C101803230F4E09172
:100D2000C101F0E0EF55FE4F10826091C10170E00B
:100D3000E0911902F0911A0281EA91E0099510926E
:100D4000C1010ACF1092E60134CFE3E2F2E0138250
:100D5000128288EE93E0A0E0B0E084839583A683BE
:100D6000B78322E131E03183208325EC30E0358701
:100D7000248724EC30E03787268720EC30E0318B65
:100D8000208B21EC30E0338B228B22EC30E0358B52
:100D9000248B26EC30E0378B268B118E128E138E2F
:100DA000148EE0ECF2E01382128284839583A68392
:100DB000B78384E291E091838083ECECF2E01382CC
:100DC000128286E391E09183808380E2848380E1D4
:100DD000818782E0828713860895CF93DF93CDB712
:100DE000DEB768970FB6F894DEBF0FBECDBF78941C
:100DF00084B5826084BD84B5816084BD85B5826020
:100E000085BD85B5816085BD80916E0081608093D0
:100E10006E00109281008091810082608093810039
:100E20008091810081608093810080918000816049
:100E3000809380008091B10084608093B1008091A4
:100E4000B00081608093B00080917A0084608093CC
:100E50007A0080917A00826080937A0080917A0093
:100E6000816080937A0080917A00806880937A0014
:100E70001092C100E0913302F091340282E080834D
:100E8000E0912F02F09130021082E0913102F09156
:100E900032028FEC808310923B02E0913702F09196
:100EA000380286E08083E0913502F091360280813D
:100EB00080618083E0913502F09136028081886004
:100EC0008083E0913502F0913602808180688083D2
:100ED000E0913502F091360280818F7D80831092FF
:100EE000200210921F0210921E0210921D020E94F8
:100EF0006C0287E890E090931C0280931B0288E8C4
:100F000090E090931A02809319021092D10280917E
:100F1000D602823018F098E09093D1028093D402E8
:100F200062E370E080E090E00E9412026091D702DC
:100F30008CEC92E00E94310368EE73E080E090E078
:100F40000E94120260E38CEC92E00E9443040BE4E6
:100F500016E4C8010197F1F760E38CEC92E00E947F
:100F60004304C8010197F1F760E38CEC92E00E9422
:100F7000430483E592E00197F1F760E28CEC92E0A4
:100F80000E9443046091D102606240E08CEC92E0E8
:100F90000E945C0484E08093D20240E06CE08CEC20
:100FA00092E00E945C0440E061E08CEC92E00E94E0
:100FB0005C040BE31FE1C8010197F1F782E0809325
:100FC000D30240E066E08CEC92E00E945C0440E0DA
:100FD00062E08CEC92E00E945C04C8010197F1F79A
:100FE00095EB492E90E0592E21EA622E20E0722ED8
:100FF0003DE8A32E30E0B32E42E4342E8E010F5F85
:101000001F4F50E0852E50E0952EF2018491F301A0
:10101000F490F501E490EE2009F4DFC081110E9404
:101020009601EE2DF0E0EE0FFF1FEE58FF4FA59159
:10103000B4918C91F82291E080E009F490E09093D3
:1010400021028093220230927C0080917A00806499
:1010500080937A0080917A0086FDFCCF80917800A1
:101060009091790080912102909122021C8A1B8A22
:101070001E8A1D8A188E1F8A4AE0B8010E940E0936
:10108000F80101900020E9F731977F01E01AF10A99
:10109000B701CE0143960E941B042B893C89811124
:1010A0009FC02115310519F0C9010E941C0A1C8A34
:1010B0001B8A188E1F8A1E8A1D8A1A8219821C8218
:1010C0001B821E821D826AE070E0C8010E941B0420
:1010D00029813A8181118BC02115310519F0C9018F
:1010E0000E941C0A1A8219821E821D821C821B8287
:1010F000CB88DC88C114D10409F483C0EF88F88C54
:10110000E114F104B1F08D819E81E80EF91EB70162
:10111000C8010E941B04882309F473C029813A8105
:101120008D819E81B601820F931F0E946B0BFE8200
:10113000ED824D815E8169817A8183E292E00E9435
:10114000890089819A81009711F00E941C0A8B897D
:101150009C89009711F00E941C0A809121029091B5
:101160002202019771F461E088E00E94BF0160ED06
:1011700077E080E090E00E94120260E088E00E9448
:10118000BF0160E085E00E94730488E08093D7028D
:1011900060E08CEC92E00E94310346E050E069E4AC
:1011A00071E08CEC92E00E94890061E082E00E9494
:1011B00073044DE050E060E571E08CEC92E00E9439
:1011C00089008114910409F420CF0E94F300882340
:1011D00009F41BCF0E94000018CF90E080E02FCFD1
:1011E000F88EEF8AB801C9010E946B0B66CF8AE0C6
:1011F00090E09E838D836EE371E0C9010E946B0BCA
:1012000077CF89819A81009711F00E941C0A1A8277
:1012100019821E821D821C821B828BCFBB274A3003
:1012200031F4992322F4BDE2909581959F4F0C945F
:101230001A09BB27FB015527AA27880F991FAA1F48
:10124000A41710F0A41B83955051B9F7A05DAA33E1
:1012500008F0A95DA193009779F7B111B1931192AC
:10126000CB010C943309DC01FC01672F71917723CA
:10127000E1F7329704C07C916D9370836291AE1751
:10128000BF07C8F308952F923F924F925F926F92DB
:101290007F928F929F92AF92BF92CF92DF92EF9206
:1012A000FF920F931F93CF93DF93CDB7DEB7CA1B87
:1012B000DB0B0FB6F894DEBF0FBECDBF09942A88B2
:1012C000398848885F846E847D848C849B84AA845A
:1012D000B984C884DF80EE80FD800C811B81AA81E7
:1012E000B981CE0FD11D0FB6F894DEBF0FBECDBFB2
:1012F000ED010895EE0FFF1F0590F491E02D099484
:101300000F931F93CF93DF938230910510F482E007
:1013100090E0E091DA02F091DB0230E020E0B0E012
:10132000A0E0309799F42115310509F44AC0281B33
:10133000390B24303105D8F58A819B8161157105FF
:1013400089F1FB0193838283FE0111C040815181A9
:101350000281138148175907E0F04817590799F49B
:10136000109761F012960C93129713961C93329675
:10137000CF01DF91CF911F910F9108950093DA0271
:101380001093DB02F4CF2115310551F042175307BA
:1013900038F0A901DB019A01BD01DF01F801C1CFDD
:1013A000EF01F9CF9093DB028093DA02CDCFFE01FB
:1013B000E20FF31F819391932250310939832883DF
:1013C000D7CF2091D8023091D902232B41F420911C
:1013D0000201309103013093D9022093D802209169
:1013E0000001309101012115310541F42DB73EB7BF
:1013F0004091040150910501241B350BE091D80266
:10140000F091D902E217F307A0F42E1B3F0B281727
:10141000390778F0AC014E5F5F4F2417350748F06D
:101420004E0F5F1F5093D9024093D802819391933E
:101430009FCFF0E0E0E09CCFCF93DF930097E9F0FF
:10144000FC01329713821282A091DA02B091DB0282
:10145000ED0130E020E01097A1F420813181820F6E
:10146000931F2091D8023091D9022817390709F02B
:1014700061C0F093D902E093D802DF91CF91089533
:10148000EA01CE17DF07E8F54A815B819E0141152D
:101490005105B1F7E901FB83EA8349915991C40FE2
:1014A000D51FEC17FD0761F4808191810296840FAE
:1014B000951FE90199838883828193819B838A8325
:1014C000F0E0E0E012968D919C9113970097B9F5AA
:1014D0002D913C911197CD010296820F931F20917F
:1014E000D8023091D9022817390739F6309751F5CB
:1014F0001092DB021092DA02B093D902A093D802C4
:10150000BCCFD383C28340815181840F951FC817FC
:10151000D90761F44E5F5F4F88819981480F591F49
:10152000518340838A819B81938382832115310576
:1015300009F0B0CFF093DB02E093DA029ECFFD0119
:10154000DC01C0CF13821282D7CFB0E0A0E0EBEA7B
:10155000FAE00C9445098C01009751F4CB010E94EC
:1015600080098C01C801CDB7DEB7E0E10C946109B8
:10157000FC01E60FF71F9C0122503109E217F30727
:1015800008F49DC0D901CD91DC911197C617D707FA
:1015900098F0C530D10530F3CE0104978617970730
:1015A00008F3C61BD70B2297C193D1936D937C93FD
:1015B000CF010E941C0AD6CF5B01AC1ABD0A4C01B8
:1015C0008C0E9D1EA091DA02B091DB02512C412CB1
:1015D000F12CE12C109731F58091D8029091D9022D
:1015E0008815990509F05CC04616570608F058C0E2
:1015F0008091000190910101009741F48DB79EB751
:101600004091040150910501841B950BE817F907DF
:1016100008F055C0F093D902E093D802F901718324
:101620006083A0CF8D919C91119712966C90129728
:1016300013967C901397A815B90559F56C0142E0F3
:10164000C40ED11CCA14DB0420F1AC014A195B0999
:10165000DA011296159780F062827382518340837B
:10166000D9016D937C93E114F10471F0D7011396C5
:10167000FC93EE93129776CF22968C0F9D1FF90163
:1016800091838083F301EFCFF093DB02E093DA02E2
:1016900069CF4816590608F42C017D01D3019ACF71
:1016A000CB010E9480097C01009749F0AE01B8018E
:1016B0000E94620BC8010E941C0A870153CF10E0F0
:1016C00000E050CFFB01DC0102C001900D924150BF
:1016D0005040D8F70895FB01DC0101900D920020E5
:1016E000E1F70895F894FFCF0000DC0280000000CD
:1016F0004000140054000000000029018900B600D9
:101700007601E700C500D900000000000203D50201
:101710001804AB02CE02BB02AC0200000000A6041B
:101720008900180444020A205374617465203D2026
:101730000048656C6C6F21004D4943524F44494746
:0617400049534F4654001E
:107E0000112484B714BE81FFF0D085E080938100F7
:107E100082E08093C00088E18093C10086E0809377
:107E2000C20080E18093C4008EE0C9D0259A86E02C
:107E300020E33CEF91E0309385002093840096BBD3
:107E4000B09BFECF1D9AA8958150A9F7CC24DD24C4
:107E500088248394B5E0AB2EA1E19A2EF3E0BF2EE7
:107E6000A2D0813461F49FD0082FAFD0023811F036
:107E7000013811F484E001C083E08DD089C08234E0
:107E800011F484E103C0853419F485E0A6D080C0E4
:107E9000853579F488D0E82EFF2485D0082F10E0AE
:107EA000102F00270E291F29000F111F8ED06801E7
:107EB0006FC0863521F484E090D080E0DECF843638
:107EC00009F040C070D06FD0082F6DD080E0C81688
:107ED00080E7D80618F4F601B7BEE895C0E0D1E017
:107EE00062D089930C17E1F7F0E0CF16F0E7DF06D8
:107EF00018F0F601B7BEE89568D007B600FCFDCFD4
:107F0000A601A0E0B1E02C9130E011968C91119780
:107F100090E0982F8827822B932B1296FA010C0160
:107F200087BEE89511244E5F5F4FF1E0A038BF0790
:107F300051F7F601A7BEE89507B600FCFDCF97BE46
:107F4000E89526C08437B1F42ED02DD0F82E2BD052
:107F50003CD0F601EF2C8F010F5F1F4F84911BD097
:107F6000EA94F801C1F70894C11CD11CFA94CF0C13
:107F7000D11C0EC0853739F428D08EE10CD085E9AC
:107F80000AD08FE07ACF813511F488E018D01DD067
:107F900080E101D065CF982F8091C00085FFFCCF94
:107FA0009093C60008958091C00087FFFCCF809118
:107FB000C00084FD01C0A8958091C6000895E0E648
:107FC000F0E098E1908380830895EDDF803219F02E
:107FD00088E0F5DFFFCF84E1DECF1F93182FE3DFCA
:107FE0001150E9F7F2DF1F91089580E0E8DFEE27F6
:047FF000FF270994CA
:027FFE00040479
:00000001FF
