:100000000C945D000C9485000C9485000C94850084
:100010000C9485000C9485000C9485000C9485004C
:100020000C9485000C9485000C9485000C9485003C
:100030000C9485000C9485000C9485000C9485002C
:100040000C9423040C9485000C94F1030C94CB03C2
:100050000C9485000C9485000C9485000C9485000C
:100060000C946D040C94850000000008000201004F
:100070000003040700000000000000000000000072
:10008000250028002B0000000000240027002A0083
:10009000040404040404040402020202020203032E
:1000A0000303030301020408102040800102040836
:1000B00010200102040810208C0511241FBECFEF70
:1000C000D8E0DEBFCDBF11E0A0E0B1E0E4EBFAE1A3
:1000D00002C005900D92A634B107D9F722E0A6E43C
:1000E000B1E001C01D92A43CB207E1F710E0CDE5FC
:1000F000D0E004C02197FE010E94600BCC35D107EF
:10010000C9F70E94C5050C94580D0C94000090E0AE
:10011000FC01EC55FF4F249180579F4FFC018491C7
:10012000882399F090E0880F991FFC01EA57FF4F50
:10013000A591B491FC01E458FF4F859194918FB73C
:10014000F894EC91E22BEC938FBF08958091160206
:1001500090911502891B990B089508950895AF9207
:10016000BF92CF92DF92EF92FF920F931F93CF93A4
:10017000DF936C017B018B01040F151FEB015E0106
:10018000AE18BF08C017D10759F06991D601ED919B
:10019000FC910190F081E02DC6010995892B79F73A
:1001A000C501DF91CF911F910F91FF90EF90DF90EC
:1001B000CF90BF90AF900895FC01538D448D252FB3
:1001C00030E0842F90E0821B930B541710F0CF96F1
:1001D000089501970895FC01918D828D981761F023
:1001E000A28DAE0FBF2FB11D5D968C91928D9F5F3A
:1001F0009F73928F90E008958FEF9FEF0895FC0119
:10020000918D828D981731F0828DE80FF11D858DCB
:1002100090E008958FEF9FEF0895FC01918D228D5E
:10022000892F90E0805C9F4F821B91098F739927E3
:10023000089587E192E00E940D0121E0892B09F4E5
:1002400020E0822F089580E090E0892B29F00E9421
:10025000190181110C9400000895FC01A48DA80FD0
:10026000B92FB11DA35ABF4F2C91848D90E00196F8
:100270008F739927848FA689B7892C93A089B18918
:100280008C91837080648C93938D848D981306C0B9
:100290000288F389E02D80818F7D80830895EF921D
:1002A000FF920F931F93CF93DF93EC0181E0888F30
:1002B0009B8D8C8D98131AC0E889F989808185FF00
:1002C00015C09FB7F894EE89FF896083E889F989A2
:1002D00080818370806480839FBF81E090E0DF91A4
:1002E000CF911F910F91FF90EF900895F62E0B8DF7
:1002F00010E00F5F1F4F0F731127E02E8C8D8E11B2
:100300000CC00FB607FCFACFE889F989808185FF18
:10031000F5CFCE010E942D01F1CFEB8DEC0FFD2F1B
:10032000F11DE35AFF4FF0829FB7F8940B8FEA89D3
:10033000FB8980818062CFCFCF93DF93EC01888DE2
:100340008823B9F0AA89BB89E889F9898C9185FD50
:1003500003C0808186FD0DC00FB607FCF7CF8C91DE
:1003600085FFF2CF808185FFEDCFCE010E942D0168
:10037000E9CFDF91CF91089590E0FC01E859FF4F5C
:100380002491FC01EC55FF4F3491FC01E057FF4FE5
:10039000E491EE23C9F0222339F0233001F1A8F4CF
:1003A000213019F1223029F1F0E0EE0FFF1FE4585F
:1003B000FF4FA591B4918FB7F894EC91611126C0CD
:1003C00030953E233C938FBF08952730A9F0283005
:1003D000C9F0243049F7809180008F7D03C080915F
:1003E00080008F7780938000DFCF84B58F7784BDC6
:1003F000DBCF84B58F7DFBCF8091B0008F7780936A
:10040000B000D2CF8091B0008F7DF9CF3E2BDACFF4
:100410003FB7F89480918F0190919001A091910144
:10042000B091920126B5A89B05C02F3F19F0019607
:10043000A11DB11D3FBFBA2FA92F982F8827BC013E
:10044000CD01620F711D811D911D42E0660F771F66
:10045000881F991F4A95D1F7089520916701260FAB
:100460003327331F21323105ECF42091EF01FC01D9
:1004700090E080E0243069F082E00895A091670167
:100480002191AC01495B5E4FA40FB52FB11D2C9398
:100490000196861798F380916701680F6093670152
:1004A00080E0089581E008951092EF0181E080934B
:1004B000EE011092E90161E082E10E94BC0161E07D
:1004C00083E10E94BC01E9EBF0E080818E7F8083B4
:1004D00080818D7F808388E48093B80085E4809359
:1004E000BC000895CF93DF9391E090934601882359
:1004F000B9F0C091B800D091BA008091BC008A7B5D
:100500008093BC0060E082E10E94BC0160E083E176
:100510000E94BC010E945402D093BA00C093B8005C
:10052000DF91CF9108950895E09115028091160210
:10053000E81730F4F0E0EB50FE4F808190E0089532
:100540008FEF9FEF089590911502809116022FEF83
:100550003FEF981748F4E92FF0E0EB50FE4F208171
:1005600030E09F5F90931502C9010895CF92DF920A
:10057000EF92FF920F931F93CF93DF937C01CB01F8
:100580008A012091A501222389F0EB016B01C40EA1
:10059000D51ECC15DD0569F06991D701ED91FC916F
:1005A0000190F081E02DC7010995F3CF642F0E94DF
:1005B0002D02C801DF91CF911F910F91FF90EF9015
:1005C000DF90CF900895CF93DF931F92CDB7DEB722
:1005D00069832091A5012223F9F02091C8012032DE
:1005E00058F021E030E0FC013383228390E080E08A
:1005F0000F90DF91CF9108958091A601E82FF0E050
:10060000E955FE4F998190838F5F8093A601809377
:10061000C80181E090E0ECCF61E0CE0101960E943C
:100620002D02F7CF90E080E008958F929F92AF92D5
:10063000BF920F931F93CF93DF93CDB7DEB7A197F0
:100640000FB6F894DEBF0FBECDBF19A2423008F43A
:100650004AE08E010F5D1F4F842E912CB12CA12CEE
:10066000A50194010E942F0BE62FB901CA01EA30BF
:1006700044F5E05DD801EE938D01232B242B252B2F
:1006800079F790E080E0109769F0FD01019000207B
:10069000E9F73197AF014A1B5B0BBD0187E192E09F
:1006A0000E94AF00A1960FB6F894DEBF0FBECDBF7B
:1006B000DF91CF911F910F91BF90AF909F908F903E
:1006C0000895E95CD7CF42E050E06EE271E087E147
:1006D00092E00C94AF000F931F93CF93DF93EC0144
:1006E00088819981009759F02A813B812617370725
:1006F00030F081E0DF91CF911F910F9108958B0130
:100700006F5F7F4F0E948B0C009759F0998388830D
:100710001B830A832C813D81232B59F7FC01108216
:10072000E8CF80E0E7CF85ED8093BC008091F101B8
:100730009091F201A091F301B091F4010796A11DEF
:10074000B11D23E0B695A795979587952A95D1F782
:100750002091BC0024FD03C01092EF010895409148
:10076000F1015091F2016091F3017091F401452B78
:10077000462B472B69F30097A105B10541F02AE20A
:100780002A95F1F700C00197A109B109E1CF809145
:10079000F0010C9472021F920F920FB60F92112467
:1007A0002F933F934F935F936F937F938F939F9379
:1007B000AF93BF93EF93FF9387E192E00E942D01E7
:1007C000FF91EF91BF91AF919F918F917F916F9129
:1007D0005F914F913F912F910F900FBE0F901F90FF
:1007E00018951F920F920FB60F9211242F938F938B
:1007F0009F93EF93FF93E0912702F091280280816D
:10080000E0912D02F0912E0282FD1BC0908180911B
:1008100030028F5F8F7320913102821741F0E09197
:100820003002F0E0E95EFD4F958F80933002FF913A
:10083000EF919F918F912F910F900FBE0F901F906E
:1008400018958081F4CF1F920F920FB60F9211244A
:100850002F933F938F939F93AF93BF9380918B017F
:1008600090918C01A0918D01B0918E0130918A01FF
:1008700023E0230F2D3758F50196A11DB11D2093BC
:100880008A0180938B0190938C01A0938D01B0938A
:100890008E0180918F0190919001A0919101B09172
:1008A00092010196A11DB11D80938F01909390013B
:1008B000A0939101B0939201BF91AF919F918F91BD
:1008C0003F912F910F900FBE0F901F90189526E823
:1008D000230F0296A11DB11DD2CF1F920F920FB60A
:1008E0000F9211242F933F934F935F936F937F93B6
:1008F0008F939F93AF93BF93EF93FF938091B90032
:10090000887F803609F44AC0F0F5883209F4A7C020
:1009100018F5803109F49BC0B8F4882309F4F9C0B4
:10092000883009F494C0FF91EF91BF91AF919F91EE
:100930008F917F916F915F914F913F912F910F9088
:100940000FBE0F901F901895883109F488C080322F
:1009500051F78093ED0114C0803409F49DC040F438
:100960008033B9F38833F9F68093ED0185ECB0C09C
:10097000803509F485C0883509F496C0883499F625
:100980000E949303D0CF883909F48CC038F588379A
:1009900029F050F4883611F0803729F683E08093EF
:1009A000EF011092890157C0883809F47BC0803963
:1009B00019F0803809F0B7CF80918901803208F0B2
:1009C00071C0E091890181E08E0F8093890180914F
:1009D000BB00F0E0E759FE4F80833DC0803B39F01B
:1009E000E0F4803A09F479C0883A09F09CCF84E0B9
:1009F0008093EF011092680110926701E0919501D8
:100A0000F091960109958091670181110FC081E0F5
:100A1000809367011092470109C0803C09F4A6CF7A
:100A2000883C09F4A3CF883B09F07DCFE0916801B1
:100A300081E08E0F80936801F0E0E95BFE4F8081DA
:100A40008093BB00909168018091670129C08091DB
:100A5000EA018093BB0085EC8093BC0064CF909149
:100A6000EC018091EB01981758F5E091EC0181E0E1
:100A70008E0F8093EC01F0E0E753FE4F8081E9CFC9
:100A8000E091EC0181E08E0F8093EC018091BB003E
:100A9000F0E0E753FE4F80839091EC018091EB01F1
:100AA0009817C8F285E8D8CFE091EC0181E08E0F6D
:100AB0008093EC018091BB00F0E0E753FE4F808310
:100AC0008091EE0181115CCF81E08093E90184EA9D
:100AD0008093BC001092EF0126CF85EC8093BC0080
:100AE0001092EF0180918901803230F4E091890108
:100AF000F0E0E759FE4F10826091890170E0E091CB
:100B00009301F091940189E691E009951092890191
:100B10000ACF1092ED0134CFE7E1F2E013821282A6
:100B200088EE93E0A0E0B0E084839583A683B7834A
:100B30002EE031E03183208325EC30E035872487B7
:100B400024EC30E03787268720EC30E0318B208B97
:100B500021EC30E0338B228B22EC30E0358B248B80
:100B600026EC30E0378B268B118E128E138E148E6E
:100B7000E4EBF2E01382128284839583A683B78329
:100B800080E291E0918380830895CF93DF93CDB786
:100B9000DEB72C970FB6F894DEBF0FBECDBF7894AA
:100BA00084B5826084BD84B5816084BD85B5826072
:100BB00085BD85B5816085BD80916E008160809323
:100BC0006E0010928100809181008260809381008C
:100BD000809181008160809381008091800081609C
:100BE000809380008091B10084608093B1008091F7
:100BF000B00081608093B00080917A00846080931F
:100C00007A0080917A00826080937A0080917A00E5
:100C1000816080937A0080917A00806880937A0066
:100C20001092C100E0912702F091280282E08083B7
:100C3000E0912302F09124021082E0912502F091CC
:100C400026028FEC808310922F02E0912B02F0910C
:100C50002C0286E08083E0912902F0912A028081B3
:100C600080618083E0912902F0912A02808188606E
:100C70008083E0912902F0912A028081806880833C
:100C8000E0912902F0912A0280818F7D8083109269
:100C90001502109216021092A6011092C8010E942D
:100CA00054028DEA90E090939601809395018EEA2C
:100CB00090E0909394018093930184E390E090936B
:100CC000A4018093A30182E390E09093A20180931A
:100CD000A10180E390E09093A00180939F018EE2B8
:100CE00090E090939E0180939D018CE290E0909320
:100CF0009C0180939B018AE290E090939A018093FB
:100D0000990188E290E0909398018093970184E3A1
:100D10000E94870082E30E94870080E30E94870090
:100D20008EE20E9487008CE20E9487008AE20E9485
:100D3000870088E20E9487003AE0432E512C612C04
:100D4000712C42E0342E2FE1222E0E946E0AA30164
:100D500092010E94C60A6B017C018B0118861F82DA
:100D60001A8619861C861B8670E060E0CE01079605
:100D70000E946B032F813885811135C02115310503
:100D800019F0C9010E94020C18861F821C861B865E
:100D90001A8619864AE0C701B601F7FE0DC06DE25A
:100DA00087E192E00E944F0166277727CB016C19FB
:100DB0007D098E099F094AE00E9415030E94630382
:100DC0000A30110508F05EC1F601E751F94F0C94A5
:100DD000600BFB061B073607DA07F0070608170843
:100DE000320834083B081C861B8660E371E0C901A9
:100DF0000E94510DCFCF61E08091A3010E94BC0100
:100E000061E08091A1010E94BC0161E080919F019D
:100E10000E94BC0161E080919D010E94BC0161E0E3
:100E200080919B010E94BC0161E0809199010E9428
:100E3000BC0160E03AC060E08091A3010E94BC0167
:100E400061E08091A1010E94BC0161E080919F015D
:100E50000E94BC0160E080919D010E94BC0160E0A5
:100E600080919B010E94BC0160E0DFCF61E0809136
:100E7000A3010E94BC0161E08091A1010E94BC011C
:100E800060E080919F010E94BC0161E080919D0122
:100E90000E94BC0161E080919B010E94BC0160E066
:100EA000809199010E94BC0161E0809197010E94AC
:100EB000BC0181E08093A5018093C7011092A60137
:100EC0001092C8016C2D84EB92E00E94E302109115
:100ED000C801113208F007C10E9408026B017C01B1
:100EE0008091EF018111DAC03092EF0181E08093AF
:100EF000EE012FEF2093ED011092EC011093EB0126
:100F0000E7EAF1E0A9ECB1E080E0181360C11092CB
:100F1000EA018091EA0182608093EA018091E9010F
:100F2000813009F058C11092E9010E9408026B015A
:100F30007C018091EA018093BB008091F101909146
:100F4000F201A091F301B091F401892B8A2B8B2B34
:100F5000A1F00E9408020091F1011091F20120918C
:100F6000F3013091F4016C197D098E099F09061770
:100F700017072807390708F4B2C08091BC0083FD29
:100F8000D8CF85EC8093BC000E9408026B017C01E5
:100F90008091EF01823009F422C18091ED018F3FF1
:100FA00009F4A1C08091ED01803209F49CC08091C8
:100FB000ED0199C061E08091A3010E94BC0161E054
:100FC0008091A1010E94BC0161E080919F010E947B
:100FD000BC0161E080919D010E94BC0160E05BCF9B
:100FE00060E08091A3010E94BC0161E08091A101B9
:100FF0000E94BC0161E080919F010E94BC0160E001
:1010000080919D010E94BC0160E026C061E080915A
:10101000A3010E94BC0160E08091A1010E94BC017B
:1010200061E080919F010E94BC0161E0E9CF61E035
:101030008091A3010E94BC0160E08091A1010E9407
:10104000BC0161E080919F010E94BC0161E0809140
:101050009D010E94BC0161E080919B010E94BC0146
:1010600061E01ECF61E0E8CE61E08091A3010E94C3
:10107000BC0161E0E2CF61E08091A3010E94BC016C
:1010800061E0CACF60E08091A3010E94BC0160E0F2
:101090008091A1010E94BC0160E0D8CE8091F10155
:1010A0009091F201A091F301B091F401892B8A2B68
:1010B0008B2B09F415CF0E9408028090F1019090CB
:1010C000F201A090F301B090F4016C197D098E0932
:1010D0009F0986169706A806B90608F001CF8091E9
:1010E000F0010E9472021092A6011092C8011092A3
:1010F000A5010E9408026B017C018091EF01811122
:1011000090C081E08093EF018093EE012FEF209358
:10111000ED011092EC012092EB018093EA018091A5
:10112000EA0182608093EA018091E901813009F04F
:10113000C6C01092E9010E9408026B017C018091F7
:10114000EA018093BB008091F1019091F201A0919E
:10115000F301B091F401892B8A2B8B2BA1F00E9413
:1011600008020091F1011091F2012091F3013091F8
:10117000F4016C197D098E099F09061717072807C6
:10118000390708F46FC08091BC0083FDD8CF85EC8F
:101190008093BC000E9408026B017C018091EF01EA
:1011A000813009F490C08091EC0190E2D92E803218
:1011B00010F4D090EC01E9ECF1E0A5EFB1E080E0B3
:1011C0008D1509F454C091919D938F5FF9CF919142
:1011D0009D938F5F9ACE95EE9093BC00D5CE809173
:1011E000F1019091F201A091F301B091F401892BEA
:1011F0008A2B8B2B09F4CCCE0E9408020091F101BE
:101200001091F2012091F3013091F4016C197D09E4
:101210008E099F09061717072807390708F0B8CE67
:101220005ECF8091F1019091F201A091F301B09114
:10123000F401892B8A2B8B2B09F45FCF0E940802C3
:101240000091F1011091F2012091F3013091F4012C
:101250006C197D098E099F0906171707280739079A
:1012600008F04BCF8091F0010E947202D12C1092B5
:101270001502D092160280911502D81609F445C0C5
:1012800084EB92E00E94A30289831A820B851C855D
:101290000F5F1F4FB801CE0107960E946B03882392
:1012A00051F32F8138858B859C85BE016F5F7F4F01
:1012B000820F931F0E94510D1C870B87DCCF95EE88
:1012C0009093BC0067CF8091F1019091F201A091C1
:1012D000F301B091F401892B8A2B8B2B09F45ECF9B
:1012E0000E9408020091F1011091F2012091F30196
:1012F0003091F4016C197D098E099F0906171707B3
:101300002807390708F04ACFADCF1A8219821C820C
:101310001B821E821D8264E170E0CE0101960E9454
:101320006B0329813A81811176C02115310519F0AD
:10133000C9010E94020C1A8219821E821D821C821F
:101340001B82CF80D884C114D10409F46EC00B85F0
:101350001C8501151105B9F08D819E81080F191F9B
:10136000B801CE0101960E946B03882309F45DC089
:1013700029813A818D819E81B601820F931F0E943F
:10138000510D1E830D834D815E8169817A8187E1D4
:1013900092E00E94AF000E94630389819A810097C6
:1013A00011F00E94020C0E9408024B015C0188EEC1
:1013B000C82E83E0D82EE12CF12C0E940802681977
:1013C00079098A099B09683E734081059105A8F354
:1013D00021E0C21AD108E108F10888EE880E83E006
:1013E000981EA11CB11CC114D104E104F10429F719
:1013F0008F819885009711F00E94020C80E090E0A8
:10140000892B09F4A2CC0E941901882309F49BCCF2
:101410000E94000098CC84E190E09E838D8361E37C
:1014200071E0C9010E94510D8CCF89819A8100978A
:1014300011F00E94020C1A8219821E821D821C82E7
:101440001B82A1CF8F929F92AF92BF92CF92DF92D9
:10145000EF92FF92CF93DF93EC01688179818A81CB
:101460009B81611571058105910521F464E279ED97
:101470008BE597E02DE133EF41E050E00E94C60A92
:1014800049015A019B01AC01A7EAB1E40E94E50AB7
:101490006B017C01ACEEB4EFA50194010E94F30A4C
:1014A000C60ED71EE81EF91EF7FE06C081E0C81A58
:1014B000D108E10880E8F80AC882D982EA82FB8272
:1014C000C701B6019F77DF91CF91FF90EF90DF903A
:1014D000CF90BF90AF909F908F9008958F929F92E2
:1014E000AF92BF92CF92DF92EF92FF926091000194
:1014F00070910101809102019091030161157105C4
:101500008105910521F464E279ED8BE597E02DE109
:1015100033EF41E050E00E94C60A49015A019B01A5
:10152000AC01A7EAB1E40E94E50A6B017C01ACEED4
:10153000B4EFA50194010E94F30AC60ED71EE81E5F
:10154000F91EF7FE06C081E0C81AD108E10880E85C
:10155000F80AC0920001D0920101E0920201F092DB
:101560000301C701B6019F77FF90EF90DF90CF9006
:10157000BF90AF909F908F900895609300017093FB
:10158000010180930201909303010895052E97FBBA
:101590001EF400940E94DD0A57FD07D00E942F0B15
:1015A00007FC03D04EF40C94DD0A5095409530951D
:1015B00021953F4F4F4F5F4F0895909580957095BF
:1015C00061957F4F8F4F9F4F08950E94510BA59FAC
:1015D000900DB49F900DA49F800D911D112408952E
:1015E000B7FF0C94E50A0E94E50A821B930B08954D
:1015F0002F923F924F925F926F927F928F929F9223
:10160000AF92BF92CF92DF92EF92FF920F931F9310
:10161000CF93DF93CDB7DEB7CA1BDB0B0FB6F894C1
:10162000DEBF0FBECDBF09942A88398848885F8401
:101630006E847D848C849B84AA84B984C884DF8072
:10164000EE80FD800C811B81AA81B981CE0FD11D56
:101650000FB6F894DEBF0FBECDBFED010895A1E235
:101660001A2EAA1BBB1BFD010DC0AA1FBB1FEE1F1C
:10167000FF1FA217B307E407F50720F0A21BB30B67
:10168000E40BF50B661F771F881F991F1A9469F7E3
:1016900060957095809590959B01AC01BD01CF013F
:1016A0000895A29FB001B39FC001A39F700D811D3B
:1016B0001124911DB29F700D811D1124911D08955B
:1016C000EE0FFF1F0590F491E02D09940F931F93E7
:1016D000CF93DF938230910510F482E090E0E091A7
:1016E000C202F091C30230E020E0B0E0A0E0309709
:1016F00099F42115310509F44AC0281B390B24300F
:101700003105D8F58A819B816115710589F1FB014D
:1017100093838283FE0111C0408151810281138134
:1017200048175907E0F04817590799F4109761F0E6
:1017300012960C93129713961C933296CF01DF9159
:10174000CF911F910F9108950093C2021093C3028D
:10175000F4CF2115310551F04217530738F0A90194
:10176000DB019A01BD01DF01F801C1CFEF01F9CF23
:101770009093C3028093C202CDCFFE01E20FF31F0C
:10178000819391932250310939832883D7CF2091B7
:10179000C0023091C102232B41F420910601309107
:1017A00007013093C1022093C002209104013091BF
:1017B00005012115310541F42DB73EB740910801CF
:1017C00050910901241B350BE091C002F091C10238
:1017D000E217F307A0F42E1B3F0B2817390778F008
:1017E000AC014E5F5F4F2417350748F04E0F5F1F67
:1017F0005093C1024093C002819391939FCFF0E038
:10180000E0E09CCFCF93DF930097E9F0FC013297A3
:1018100013821282A091C202B091C302ED0130E0A6
:1018200020E01097A1F420813181820F931F209135
:10183000C0023091C1022817390709F061C0F09346
:10184000C102E093C002DF91CF910895EA01CE1763
:10185000DF07E8F54A815B819E0141155105B1F72B
:10186000E901FB83EA8349915991C40FD51FEC1715
:10187000FD0761F4808191810296840F951FE90133
:1018800099838883828193819B838A83F0E0E0E05F
:1018900012968D919C9113970097B9F52D913C91DB
:1018A0001197CD010296820F931F2091C0023091B3
:1018B000C1022817390739F6309751F51092C30243
:1018C0001092C202B093C102A093C002BCCFD383D6
:1018D000C28340815181840F951FC817D90761F4D5
:1018E0004E5F5F4F88819981480F591F5183408314
:1018F0008A819B81938382832115310509F0B0CFC2
:10190000F093C302E093C2029ECFFD01DC01C0CF81
:1019100013821282D7CFB0E0A0E0E1E9FCE00C94A2
:10192000FA0A8C01009751F4CB010E94660B8C01DE
:10193000C801CDB7DEB7E0E10C94160BFC01E60F51
:10194000F71F9C0122503109E217F30708F49DC0EC
:10195000D901CD91DC911197C617D70798F0C53002
:10196000D10530F3CE0104978617970708F3C61BFD
:10197000D70B2297C193D1936D937C93CF010E9493
:10198000020CD6CF5B01AC1ABD0A4C018C0E9D1E19
:10199000A091C202B091C302512C412CF12CE12C38
:1019A000109731F58091C0029091C1028815990578
:1019B00009F05CC04616570608F058C08091040133
:1019C00090910501009741F48DB79EB740910801B1
:1019D00050910901841B950BE817F90708F055C0D1
:1019E000F093C102E093C002F90171836083A0CF3C
:1019F0008D919C91119712966C90129713967C90F2
:101A00001397A815B90559F56C0142E0C40ED11C15
:101A1000CA14DB0420F1AC014A195B09DA01129601
:101A2000159780F06282738251834083D9016D9350
:101A30007C93E114F10471F0D7011396FC93EE93BB
:101A4000129776CF22968C0F9D1FF9019183808388
:101A5000F301EFCFF093C302E093C20269CF4816BF
:101A6000590608F42C017D01D3019ACFCB010E94C5
:101A7000660B7C01009749F0AE01B8010E94480D49
:101A8000C8010E94020C870153CF10E000E050CF44
:101A9000FB01DC0102C001900D9241505040D8F78B
:101AA0000895FB01DC0101900D920020E1F70895FB
:041AB000F894FFCFD8
:101AB400010000000000C4028000000000004F018B
:101AC400AF00DC009C010D01EB00FF0000000000F2
:101AD400E302B60212039302A600A30294020D0AC3
:101AE40000526573706F6E64732066726F6D20733D
:061AF4006C617665200024
:00000001FF
